{
  "deployments": [
    {
      "transactions": [
        {
          "hash": "0x9a5df52eb6f17704877559685099a3bedde5e77bd6fbfe671001f784a8ca00b3",
          "transactionType": "CREATE",
          "contractName": "WrapMintBurn",
          "contractAddress": "0xD5308A4Bb2D7121A26d0bd11257245F0EFDa2bc4",
          "function": null,
          "arguments": [
            "(1, 2)",
            "50",
            "50"
          ],
          "rpc": "https://sgb.ftso.com.au/ext/bc/C/rpc",
          "transaction": {
            "type": "0x00",
            "from": "0x3e72022ec1841993482f94182ae186593ce512dc",
            "gas": "0x61b49a",
            "value": "0x0",
            "data": "0x60806040523480156200001157600080fd5b5060405162005d4238038062005d42833981016040819052620000349162000853565b828262000043600033620000d6565b6200005e60008051602062005d2283398151915233620000d6565b620000997ffcb9fcbfa83b897fb2d5cf4b58962164105c1e71489a37ef3ae0db3fdce576f660008051602062005d22833981519152620000e6565b620000b48260086200013160201b620012051790919060201c565b620000bf81620001b1565b50620000cd9050816200020d565b50505062000a80565b620000e2828262000321565b5050565b600082815260208190526040808220600101805490849055905190918391839186917fbd79b86ffe0ab8e8776151514217cd7cacd52c909f66475c3af44e129f0b00ff9190a4505050565b805160ff1615806200014957508051608060ff909116115b806200015a5750602081015160ff16155b80620001705750608060ff16816020015160ff16115b156200018f5760405163c52a9bd360e01b815260040160405180910390fd5b8051825460209092015160ff9081166101000261ffff19909316911617179055565b60008051602062005d22833981519152620001cc816200035f565b6101f461ffff83161115620001f457604051634efbf5f560e01b815260040160405180910390fd5b50600e805461ffff191661ffff92909216919091179055565b60008051602062005d2283398151915262000228816200035f565b6101f461ffff831611156200025057604051634efbf5f560e01b815260040160405180910390fd5b6010805461ffff191661ffff841617905560005b6007548110156200031c57600060078281548110620002875762000287620008f7565b60009182526020808320909101546001600160a01b031680835260038083526040808520815160c0810183528154808252600183015496820187905260028301549382019390935292810154606084018190526004820154608085015260059091015460a08401529295509093620003049386939092916200036e565b50508080620003139062000923565b91505062000264565b505050565b6200033882826200046c60201b620012851760201c565b60008281526001602090815260409091206200031c9183906200130d6200050c821b17901c565b6200036b81336200052c565b50565b6001600160a01b038516600090815260036020526040902060010154841580620003a5575081620003a1578015620003a5565b8015155b15620003c4576040516303ff3dd760e11b815260040160405180910390fd5b60006040518060c00160405280868152602001878152602001620003ee88620005d060201b60201c565b620003fa90896200093f565b815260208082019690965260006040808301829052426060938401526001600160a01b03909a1681526003808852908a902083518155968301516001880155988201516002870155810151978501979097555050506080840151600482015560a0909301516005909301929092555050565b6000828152602081815260408083206001600160a01b038516845290915290205460ff16620000e2576000828152602081815260408083206001600160a01b03851684529091529020805460ff19166001179055620004c83390565b6001600160a01b0316816001600160a01b0316837f2f8788117e7eff1d82e926ec794901d17c78024a50270940304540a733656f0d60405160405180910390a45050565b600062000523836001600160a01b038416620005e7565b90505b92915050565b6000828152602081815260408083206001600160a01b038516845290915290205460ff16620000e25762000576816001600160a01b031660146200063960201b620013241760201c565b6200058c8360206200132462000639821b17811c565b6040516020016200059f9291906200097b565b60408051601f198184030181529082905262461bcd60e51b8252620005c791600401620009f4565b60405180910390fd5b6010546000906200052690839061ffff16620007f2565b6000818152600183016020526040812054620006305750815460018181018455600084815260208082209093018490558454848252828601909352604090209190915562000526565b50600062000526565b606060006200064a83600262000a29565b620006579060026200093f565b6001600160401b0381111562000671576200067162000813565b6040519080825280601f01601f1916602001820160405280156200069c576020820181803683370190505b509050600360fc1b81600081518110620006ba57620006ba620008f7565b60200101906001600160f81b031916908160001a905350600f60fb1b81600181518110620006ec57620006ec620008f7565b60200101906001600160f81b031916908160001a90535060006200071284600262000a29565b6200071f9060016200093f565b90505b6001811115620007a1576f181899199a1a9b1b9c1cb0b131b232b360811b85600f1660108110620007575762000757620008f7565b1a60f81b828281518110620007705762000770620008f7565b60200101906001600160f81b031916908160001a90535060049490941c93620007998162000a43565b905062000722565b508315620005235760405162461bcd60e51b815260206004820181905260248201527f537472696e67733a20686578206c656e67746820696e73756666696369656e746044820152606401620005c7565b60006127106200080761ffff84168562000a29565b62000523919062000a5d565b634e487b7160e01b600052604160045260246000fd5b805160ff811681146200083b57600080fd5b919050565b805161ffff811681146200083b57600080fd5b600080600083850360808112156200086a57600080fd5b60408112156200087957600080fd5b50604080519081016001600160401b0381118282101715620008ab57634e487b7160e01b600052604160045260246000fd5b604052620008b98562000829565b8152620008c96020860162000829565b60208201529250620008de6040850162000840565b9150620008ee6060850162000840565b90509250925092565b634e487b7160e01b600052603260045260246000fd5b634e487b7160e01b600052601160045260246000fd5b6000600182016200093857620009386200090d565b5060010190565b808201808211156200052657620005266200090d565b60005b838110156200097257818101518382015260200162000958565b50506000910152565b7f416363657373436f6e74726f6c3a206163636f756e7420000000000000000000815260008351620009b581601785016020880162000955565b7001034b99036b4b9b9b4b733903937b6329607d1b6017918401918201528351620009e881602884016020880162000955565b01602801949350505050565b602081526000825180602084015262000a1581604085016020870162000955565b601f01601f19169190910160400192915050565b80820281158282048414176200052657620005266200090d565b60008162000a555762000a556200090d565b506000190190565b60008262000a7b57634e487b7160e01b600052601260045260246000fd5b500490565b6152928062000a906000396000f3fe60806040523480156200001157600080fd5b5060043610620002915760003560e01c8063842e8b811162000161578063a217fddf11620000d3578063d17349071162000092578063d1734907146200069e578063d547741f14620006b5578063dff7330714620006cc578063eec9c9de14620006d5578063f45346dc1462000703578063feaeb43e146200071a57600080fd5b8063a217fddf14620005d5578063ba46ae7214620005de578063c3e4a8661462000659578063ca15c8731462000670578063ce5494bb146200068757600080fd5b80638e26a48811620001205780638e26a488146200055e5780639010d07c146200058157806391d1485414620005985780639267b15314620005af57806396daa32214620005c657600080fd5b8063842e8b8114620004ec5780638456cb59146200050f578063858146361462000519578063883910d7146200053057806388f14da3146200054757600080fd5b80634f64b2be116200020757806366d372e811620001c657806366d372e8146200046c5780636d1b96b4146200048357806373445f00146200049a5780637486fa4e14620004b157806377c654a314620004cb5780637b89893914620004e257600080fd5b80634f64b2be14620003f2578063511e1f0c14620004095780635bfb29aa14620004205780635c975abb1462000437578063651107bd146200044557600080fd5b8063389ed2671162000254578063389ed267146200036c5780633f4ba83a146200039457806340a141ff146200039e57806347adf63014620003b55780634f1811dd14620003cc57600080fd5b806301ffc9a71462000296578063248a9ca314620002c25780632f2ff15d14620002f757806336568abe146200031057806336cdca741462000327575b600080fd5b620002ad620002a736600462002bf7565b62000746565b60405190151581526020015b60405180910390f35b620002e8620002d336600462002c23565b60009081526020819052604090206001015490565b604051908152602001620002b9565b6200030e6200030836600462002c5a565b62000774565b005b6200030e6200032136600462002c5a565b620007a2565b620003536200033836600462002c89565b6005602052600090815260409020546001600160a01b031681565b6040516001600160a01b039091168152602001620002b9565b620002e87ffcb9fcbfa83b897fb2d5cf4b58962164105c1e71489a37ef3ae0db3fdce576f681565b6200030e62000828565b6200030e620003af36600462002c89565b62000881565b6200030e620003c636600462002ca7565b620008a9565b620003e3620003dd36600462002c89565b620008d4565b604051620002b9919062002cd6565b620003536200040336600462002c23565b62000951565b6200030e6200041a36600462002c89565b6200097c565b620003536200043136600462002de3565b62000a5f565b600254620002ad9060ff1681565b6200045c6200045636600462002c23565b62000aeb565b604051620002b992919062002e99565b6200030e6200047d36600462002eee565b62000b05565b6200030e6200049436600462002f4b565b62000b4d565b6200030e620004ab36600462002fe1565b62000c4d565b600e5462000353906201000090046001600160a01b031681565b6200030e620004dc3660046200302d565b62000c99565b620002e8600d5481565b600e54620004fb9061ffff1681565b60405161ffff9091168152602001620002b9565b6200030e62000cdf565b620002e86000805160206200523d83398151915281565b6200030e620005413660046200305c565b62000d1b565b6200030e620005583660046200305c565b62000e2a565b620002e86200056f36600462002c89565b600f6020526000908152604090205481565b620003536200059236600462003082565b62000e86565b620002ad620005a936600462002c5a565b62000ea7565b6200030e620005c0366004620030a5565b62000ed0565b601054620004fb9061ffff1681565b620002e8600081565b6200062b620005ef36600462002c89565b60036020528060005260406000206000915090508060000154908060010154908060020154908060030154908060040154908060050154905086565b604080519687526020870195909552938501929092526060840152608083015260a082015260c001620002b9565b6200030e6200066a3660046200302d565b62000f04565b620002e86200068136600462002c23565b62000f4e565b6200030e6200069836600462002c89565b62000f67565b6200030e620006af36600462002c23565b62001004565b6200030e620006c636600462002c5a565b6200101e565b600954620002e8565b620002e8620006e6366004620030d5565b600660209081526000928352604080842090915290825290205481565b620002e86200071436600462003102565b62001047565b620003536200072b36600462002c89565b6004602052600090815260409020546001600160a01b031681565b60006001600160e01b03198216635a05180f60e01b14806200076e57506200076e82620014de565b92915050565b600082815260208190526040902060010154620007918162001515565b6200079d838362001524565b505050565b6001600160a01b0381163314620008185760405162461bcd60e51b815260206004820152602f60248201527f416363657373436f6e74726f6c3a2063616e206f6e6c792072656e6f756e636560448201526e103937b632b9903337b91039b2b63360891b60648201526084015b60405180910390fd5b6200082482826200154a565b5050565b600e546201000090046001600160a01b0316156200085957604051631fa7b44b60e11b815260040160405180910390fd5b6000805160206200523d833981519152620008748162001515565b506002805460ff19169055565b6000805160206200523d8339815191526200089c8162001515565b6200082460088362001570565b6000620008b68162001515565b62000824620008cb368490038401846200313a565b60089062001205565b60408051808201909152600080825260208201526001600160a01b0382166000908152600a60205260409081902081518083019092528054829060ff16600381111562000925576200092562002cc0565b600381111562000939576200093962002cc0565b81529054610100900460ff1660209091015292915050565b600781815481106200096257600080fd5b6000918252602090912001546001600160a01b0316905081565b6001600160a01b038082166000908152600560205260409020541680620009b657604051630ed1b8b360e31b815260040160405180910390fd5b6001600160a01b0382166000908152600a6020526040812054610100900460ff16905b60075481101562000a5957600060078281548110620009fc57620009fc6200319d565b6000918252602080832091909101546001600160a01b031680835260068252604080842061ffff881685529092529082208054929055915062000a4182868362001616565b5050808062000a5090620031c9565b915050620009d9565b50505050565b60006000805160206200523d83398151915262000a7c8162001515565b6001600160a01b0386161562000a93578562000ad1565b87878560405162000aa49062002be9565b62000ab29392919062003239565b604051809103906000f08015801562000acf573d6000803e3d6000fd5b505b915062000ae08286856200166a565b509695505050505050565b6060600062000afc60088462001727565b91509150915091565b818181158062000b16575081814014155b1562000b3557604051631f03465b60e11b815260040160405180910390fd5b62000b438888888862001834565b5050505050505050565b818181158062000b5e575081814014155b1562000b7d57604051631f03465b60e11b815260040160405180910390fd5b60005b8581101562000c445762000c2f87878381811062000ba25762000ba26200319d565b9050608002016000013588888481811062000bc15762000bc16200319d565b905060800201602001602081019062000bdb919062002c89565b89898581811062000bf05762000bf06200319d565b905060800201604001358a8a8681811062000c0f5762000c0f6200319d565b905060800201606001602081019062000c29919062002c89565b62001834565b8062000c3b81620031c9565b91505062000b80565b50505050505050565b600062000c5a8162001515565b62000c686008858562001b0d565b506001600160a01b03928316600090815260056020526040902080546001600160a01b031916919093161790915550565b6000805160206200523d83398151915262000cb48162001515565b6001600160a01b0383166000818152600f6020526040812080549190559062000a5990848362001616565b7ffcb9fcbfa83b897fb2d5cf4b58962164105c1e71489a37ef3ae0db3fdce576f662000d0b8162001515565b506002805460ff19166001179055565b6000805160206200523d83398151915262000d368162001515565b6101f461ffff8316111562000d5e57604051634efbf5f560e01b815260040160405180910390fd5b6010805461ffff191661ffff841617905560005b6007548110156200079d5760006007828154811062000d955762000d956200319d565b60009182526020808320909101546001600160a01b031680835260038083526040808520815160c0810183528154808252600183015496820187905260028301549382019390935292810154606084018190526004820154608085015260059091015460a0840152929550909362000e1293869390929162001cc2565b5050808062000e2190620031c9565b91505062000d72565b6000805160206200523d83398151915262000e458162001515565b6101f461ffff8316111562000e6d57604051634efbf5f560e01b815260040160405180910390fd5b50600e805461ffff191661ffff92909216919091179055565b600082815260016020526040812062000ea0908362001dba565b9392505050565b6000918252602082815260408084206001600160a01b0393909316845291905290205460ff1690565b6000805160206200523d83398151915262000eeb8162001515565b6200079d83602084013584356040860135600062001cc2565b6000805160206200523d83398151915262000f1f8162001515565b506001600160a01b03918216600090815260056020526040902080546001600160a01b03191691909216179055565b60008181526001602052604081206200076e9062001dc8565b60025460ff16151560000362000f905760405163dcdde9dd60e01b815260040160405180910390fd5b600e546201000090046001600160a01b03161562000fc157604051631fa7b44b60e11b815260040160405180910390fd5b600062000fce8162001515565b62000fd98262001dd3565b50600e80546001600160a01b03909216620100000262010000600160b01b0319909216919091179055565b6000620010118162001515565b62000824600883620020ec565b6000828152602081905260409020600101546200103b8162001515565b6200079d83836200154a565b60025460009060ff161515600103620010735760405163ab35696f60e01b815260040160405180910390fd5b6001600160a01b038416600090815260036020526040902080548591859182101580620010a35750818160020154115b15620010c257604051632160733960e01b815260040160405180910390fd5b6003810154156200114a576005810154620010e1906201518062003276565b421115620010f757426005820155600060048201555b80600301548282600401546200110e919062003276565b11156200112e57604051635ee26fb960e11b815260040160405180910390fd5b8181600401600082825462001144919062003276565b90915550505b6001600160a01b0385166200117257604051638aa3a72f60e01b815260040160405180910390fd5b600d80549450849060006200118783620031c9565b919050555060006200119a888862002119565b90506001600160a01b038816857f3a58bc9c7c305b0dba42522c856c30706aadce643b5dc3c0a1a0c41fec127d99620011d4848b6200328c565b604080519182526001600160a01b038b166020830152810185905260600160405180910390a3505050509392505050565b805160ff1615806200121d57508051608060ff909116115b806200122e5750602081015160ff16155b80620012445750608060ff16816020015160ff16115b15620012635760405163c52a9bd360e01b815260040160405180910390fd5b8051825460209092015160ff9081166101000261ffff19909316911617179055565b62001291828262000ea7565b62000824576000828152602081815260408083206001600160a01b03851684529091529020805460ff19166001179055620012c93390565b6001600160a01b0316816001600160a01b0316837f2f8788117e7eff1d82e926ec794901d17c78024a50270940304540a733656f0d60405160405180910390a45050565b600062000ea0836001600160a01b03841662002257565b6060600062001335836002620032a2565b6200134290600262003276565b67ffffffffffffffff8111156200135d576200135d62002d13565b6040519080825280601f01601f19166020018201604052801562001388576020820181803683370190505b509050600360fc1b81600081518110620013a657620013a66200319d565b60200101906001600160f81b031916908160001a905350600f60fb1b81600181518110620013d857620013d86200319d565b60200101906001600160f81b031916908160001a9053506000620013fe846002620032a2565b6200140b90600162003276565b90505b60018111156200148d576f181899199a1a9b1b9c1cb0b131b232b360811b85600f16601081106200144357620014436200319d565b1a60f81b8282815181106200145c576200145c6200319d565b60200101906001600160f81b031916908160001a90535060049490941c936200148581620032bc565b90506200140e565b50831562000ea05760405162461bcd60e51b815260206004820181905260248201527f537472696e67733a20686578206c656e67746820696e73756666696369656e7460448201526064016200080f565b60006001600160e01b03198216637965db0b60e01b14806200076e57506301ffc9a760e01b6001600160e01b03198316146200076e565b620015218133620022a9565b50565b62001530828262001285565b60008281526001602052604090206200079d90826200130d565b62001556828262002318565b60008281526001602052604090206200079d908262002380565b6001600160a01b03811660009081526002808401602052604090912090815460ff166003811115620015a657620015a662002cc0565b1015620015d257604051633a5a4c2160e01b81526001600160a01b03831660048201526024016200080f565b805460ff191660011781556040516001600160a01b038316907f1803740ef72fc16e647c10fe2d31cf61a1578081960c2e3fb7f5aa957e82f55090600090a2505050565b604080516001600160a01b038416602482015260448082018490528251808303909101815260649091019091526020810180516001600160e01b031663a9059cbb60e01b1790526200079d90849062002397565b6001600160a01b038281166000908152600460205260409020541615620016a4576040516303ff3dd760e11b815260040160405180910390fd5b620016bd83602083013583356040850135600162001cc2565b5060078054600181019091557fa66cc928b5edb82af9bd49922954155ab7b0942694bea4ce44661d9a8736c6880180546001600160a01b039384166001600160a01b0319918216811790925591909216600090815260046020526040902080549091169091179055565b6000818152600383016020526040812060010154835460609291908290620017629060ff6301000000820481169162010000900416620032d6565b60ff1690508067ffffffffffffffff81111562001783576200178362002d13565b604051908082528060200260200182016040528015620017ad578160200160208202803683370190505b5093506000925060005b8161ffff168161ffff1610156200182a57600161ffff82161b831615620018155780858561ffff1681518110620017f257620017f26200319d565b61ffff90921660209283029190910190910152836200181181620032f2565b9450505b806200182181620032f2565b915050620017b7565b5050509250929050565b60025460ff1615156001036200185d5760405163ab35696f60e01b815260040160405180910390fd5b6001600160a01b038084166000908152600460208181526040808420549094168352600380825292849020845160c081018652815480825260018301549382019390935260028201549581019590955292830154606085015290820154608084015260059091015460a08301528491849182101580620018e05750818160200151115b15620018ff57604051632160733960e01b815260040160405180910390fd5b600954871062000c44576000620019198888888862002470565b905060006200192c600833848c620024c5565b9050600181600281111562001945576200194562002cc0565b036200199357604080518881526001600160a01b0388811660208301528a16918b917fcd73aecbef9bf19bece4b777ca57590ee572e85a62ff5602b7ab7eb73ddcb443910160405180910390a35b620019a16008838b62002744565b1562001b02576001600160a01b038089166000908152600460205260408120549091169080620019d3838b8b6200279c565b9092509050600080620019e860088862001727565b90925090506000620019ff61ffff83168562003316565b6001600160a01b03871660009081526006602052604081209192505b8361ffff168161ffff16101562001a8f5782826000878461ffff168151811062001a495762001a496200319d565b602002602001015161ffff168152602001908152602001600020600082825462001a74919062003276565b9091555081905062001a8681620032f2565b91505062001a1b565b5050505050826001600160a01b03168b6001600160a01b03168d7f775fb71ba106691d4fd81c953ace830d359f3b850e98fbc2a1ebf420af86428a858e62001ad891906200328c565b604080519182526001600160a01b038f166020830152810187905260600160405180910390a45050505b505050505050505050565b60008162001b275783546301000000900460ff1662001b33565b835462010000900460ff165b9050607f1960ff82160162001b5b5760405163ab2bf70360e01b815260040160405180910390fd5b6001600160a01b0383166000908152600285016020526040812090815460ff16600381111562001b8f5762001b8f62002cc0565b1462001bba5760405163899ec36960e01b81526001600160a01b03851660048201526024016200080f565b845462001bda9060ff6301000000820481169162010000900416620032d6565b815460ff919091166101000261ff0019909116178155821562001c3f57845462010000900460ff1685600262001c108362003339565b82546101009290920a60ff81810219909316919092169190910217905550805460ff1916600217815562001c83565b84546301000000900460ff1685600362001c598362003339565b82546101009290920a60ff81810219909316919092169190910217905550805460ff191660031781555b604051831515906001600160a01b038616907f986fcaacc4ec3bd003cca4a358313c174dbc682df73d495e8af308dc55b027a190600090a35050505050565b6001600160a01b03851660009081526003602052604090206001015484158062001cf957508162001cf557801562001cf9565b8015155b1562001d18576040516303ff3dd760e11b815260040160405180910390fd5b60006040518060c0016040528086815260200187815260200162001d3c88620028f6565b62001d48908962003276565b815260208082019690965260006040808301829052426060938401526001600160a01b03909a1681526003808852908a902083518155968301516001880155988201516002870155810151978501979097555050506080840151600482015560a0909301516005909301929092555050565b600062000ea083836200290d565b60006200076e825490565b60005b600754811015620008245760006007828154811062001df95762001df96200319d565b6000918252602082200154604051632f2ff15d60e01b815260048101929092526001600160a01b0385811660248401521691508190632f2ff15d90604401600060405180830381600087803b15801562001e5257600080fd5b505af115801562001e67573d6000803e3d6000fd5b5050604051632f2ff15d60e01b81527f9f2df0fed2c77648de5860a4cc508cd0818c85b8b8a1ab4ceeef8d981c8956a660048201526001600160a01b03868116602483015284169250632f2ff15d9150604401600060405180830381600087803b15801562001ed557600080fd5b505af115801562001eea573d6000803e3d6000fd5b5050604051632f2ff15d60e01b81527f65d7a28e3265b37a6474929f336521b332c1681b933f6cb9f3376673440d862a60048201526001600160a01b03868116602483015284169250632f2ff15d9150604401600060405180830381600087803b15801562001f5857600080fd5b505af115801562001f6d573d6000803e3d6000fd5b5050604051631b2b455f60e11b8152600060048201523060248201526001600160a01b03841692506336568abe9150604401600060405180830381600087803b15801562001fba57600080fd5b505af115801562001fcf573d6000803e3d6000fd5b5050604051631b2b455f60e11b81527f9f2df0fed2c77648de5860a4cc508cd0818c85b8b8a1ab4ceeef8d981c8956a660048201523060248201526001600160a01b03841692506336568abe9150604401600060405180830381600087803b1580156200203b57600080fd5b505af115801562002050573d6000803e3d6000fd5b5050604051631b2b455f60e11b81527f65d7a28e3265b37a6474929f336521b332c1681b933f6cb9f3376673440d862a60048201523060248201526001600160a01b03841692506336568abe9150604401600060405180830381600087803b158015620020bc57600080fd5b505af1158015620020d1573d6000803e3d6000fd5b50505050508080620020e390620031c9565b91505062001dd6565b8082600101541062002111576040516307faab4f60e11b815260040160405180910390fd5b600190910155565b60006200212682620028f6565b6001600160a01b0384166000908152600f60205260408120805492935083929091906200215590849062003276565b90915550506001600160a01b0383166379cc6790336200217684866200328c565b6040516001600160e01b031960e085901b1681526001600160a01b0390921660048301526024820152604401600060405180830381600087803b158015620021bd57600080fd5b505af1158015620021d2573d6000803e3d6000fd5b50506040516323b872dd60e01b8152336004820152306024820152604481018490526001600160a01b03861692506323b872dd91506064016020604051808303816000875af11580156200222a573d6000803e3d6000fd5b505050506040513d601f19601f820116820180604052508101906200225091906200335b565b5092915050565b6000818152600183016020526040812054620022a0575081546001818101845560008481526020808220909301849055845484825282860190935260409020919091556200076e565b5060006200076e565b620022b5828262000ea7565b6200082457620022d0816001600160a01b0316601462001324565b620022dd83602062001324565b604051602001620022f09291906200337b565b60408051601f198184030181529082905262461bcd60e51b82526200080f91600401620033f4565b62002324828262000ea7565b1562000824576000828152602081815260408083206001600160a01b0385168085529252808320805460ff1916905551339285917ff6391f5c32d9c69d2a47ea670b442974b53935d1edc7fd64eb21e047a839171b9190a45050565b600062000ea0836001600160a01b0384166200293a565b6000620023ee826040518060400160405280602081526020017f5361666545524332303a206c6f772d6c6576656c2063616c6c206661696c6564815250856001600160a01b031662002a3e9092919063ffffffff16565b8051909150156200079d57808060200190518101906200240f91906200335b565b6200079d5760405162461bcd60e51b815260206004820152602a60248201527f5361666545524332303a204552433230206f7065726174696f6e20646964206e6044820152691bdd081cdd58d8d9595960b21b60648201526084016200080f565b6040805160208082018790526bffffffffffffffffffffffff19606087811b8216848601526054840187905285901b16607483015282518083036068018152608890920190925280519101205b949350505050565b600082815260038501602052604081206002815462010000900460ff166002811115620024f657620024f662002cc0565b0362002507576000915050620024bd565b6001600160a01b038516600090815260028701602052604080822081518083019092528054829060ff16600381111562002545576200254562002cc0565b600381111562002559576200255962002cc0565b81529054610100900460ff16602090910152905060028151600381111562002585576200258562002cc0565b1015620025b157604051633a5a4c2160e01b81526001600160a01b03871660048201526024016200080f565b600084815260048801602052604090205415620025e157604051631bf4348160e31b815260040160405180910390fd5b602081015160018381015460ff9092161b90811615620026085760009350505050620024bd565b600183018054821790556002825160038111156200262a576200262a62002cc0565b03620026635782548390600090620026459060ff1662003339565b91906101000a81548160ff021916908360ff16021790555062002696565b825483906001906200267d90610100900460ff1662003339565b91906101000a81548160ff021916908360ff1602179055505b8754835460ff918216911610801590620026c257508754835460ff610100928390048116929091041610155b15620026f5575050805462ff000019166202000017905550600081815260048501602052604090208290556002620024bd565b6000835462010000900460ff16600281111562002716576200271662002cc0565b0362002736575050805462ff0000191662010000179055506001620024bd565b506000979650505050505050565b6000836001015482148015620027695750600082815260048501602052604090205483145b1562002792576001840180549060006200278383620031c9565b91905055506001905062000ea0565b5060009392505050565b60105460009081908190620027b790869061ffff1662002a4f565b6001600160a01b0387166000908152600f6020526040812080549293508392909190620027e690849062003276565b9091555050600e54620027ff90869061ffff1662002a4f565b91506200280d828262003276565b92506001600160a01b0386166340c10f19856200282b86896200328c565b6040516001600160e01b031960e085901b1681526001600160a01b0390921660048301526024820152604401600060405180830381600087803b1580156200287257600080fd5b505af115801562002887573d6000803e3d6000fd5b50506040516340c10f1960e01b8152306004820152602481018690526001600160a01b03891692506340c10f199150604401600060405180830381600087803b158015620028d457600080fd5b505af1158015620028e9573d6000803e3d6000fd5b5050505050935093915050565b6010546000906200076e90839061ffff1662002a4f565b60008260000182815481106200292757620029276200319d565b9060005260206000200154905092915050565b6000818152600183016020526040812054801562002a33576000620029616001836200328c565b855490915060009062002977906001906200328c565b9050818114620029e35760008660000182815481106200299b576200299b6200319d565b9060005260206000200154905080876000018481548110620029c157620029c16200319d565b6000918252602080832090910192909255918252600188019052604090208390555b8554869080620029f757620029f762003409565b6001900381819060005260206000200160009055905585600101600086815260200190815260200160002060009055600193505050506200076e565b60009150506200076e565b6060620024bd848460008562002a70565b600061271062002a6461ffff841685620032a2565b62000ea0919062003316565b60608247101562002ad35760405162461bcd60e51b815260206004820152602660248201527f416464726573733a20696e73756666696369656e742062616c616e636520666f6044820152651c8818d85b1b60d21b60648201526084016200080f565b6001600160a01b0385163b62002b2c5760405162461bcd60e51b815260206004820152601d60248201527f416464726573733a2063616c6c20746f206e6f6e2d636f6e747261637400000060448201526064016200080f565b600080866001600160a01b0316858760405162002b4a91906200341f565b60006040518083038185875af1925050503d806000811462002b89576040519150601f19603f3d011682016040523d82523d6000602084013e62002b8e565b606091505b509150915062002ba082828662002bab565b979650505050505050565b6060831562002bbc57508162000ea0565b82511562002bcd5782518084602001fd5b8160405162461bcd60e51b81526004016200080f9190620033f4565b611dff806200343e83390190565b60006020828403121562002c0a57600080fd5b81356001600160e01b03198116811462000ea057600080fd5b60006020828403121562002c3657600080fd5b5035919050565b80356001600160a01b038116811462002c5557600080fd5b919050565b6000806040838503121562002c6e57600080fd5b8235915062002c806020840162002c3d565b90509250929050565b60006020828403121562002c9c57600080fd5b62000ea08262002c3d565b60006040828403121562002cba57600080fd5b50919050565b634e487b7160e01b600052602160045260246000fd5b815160408201906004811062002cfc57634e487b7160e01b600052602160045260246000fd5b8083525060ff602084015116602083015292915050565b634e487b7160e01b600052604160045260246000fd5b600082601f83011262002d3b57600080fd5b813567ffffffffffffffff8082111562002d595762002d5962002d13565b604051601f8301601f19908116603f0116810190828211818310171562002d845762002d8462002d13565b8160405283815286602085880101111562002d9e57600080fd5b836020870160208301376000602085830101528094505050505092915050565b803560ff8116811462002c5557600080fd5b60006060828403121562002cba57600080fd5b600080600080600080610100878903121562002dfe57600080fd5b863567ffffffffffffffff8082111562002e1757600080fd5b62002e258a838b0162002d29565b9750602089013591508082111562002e3c57600080fd5b5062002e4b89828a0162002d29565b95505062002e5c6040880162002c3d565b935062002e6c6060880162002c3d565b925062002e7c6080880162002dbe565b915062002e8d8860a0890162002dd0565b90509295509295509295565b604080825283519082018190526000906020906060840190828701845b8281101562002ed857815161ffff168452928401929084019060010162002eb6565b50505061ffff9490941692019190915250919050565b60008060008060008060c0878903121562002f0857600080fd5b8635955062002f1a6020880162002c3d565b94506040870135935062002f316060880162002c3d565b92506080870135915060a087013590509295509295509295565b6000806000806060858703121562002f6257600080fd5b843567ffffffffffffffff8082111562002f7b57600080fd5b818701915087601f83011262002f9057600080fd5b81358181111562002fa057600080fd5b8860208260071b850101111562002fb657600080fd5b6020928301999098509187013596604001359550909350505050565b80151581146200152157600080fd5b60008060006060848603121562002ff757600080fd5b620030028462002c3d565b92506020840135620030148162002fd2565b9150620030246040850162002c3d565b90509250925092565b600080604083850312156200304157600080fd5b6200304c8362002c3d565b915062002c806020840162002c3d565b6000602082840312156200306f57600080fd5b813561ffff8116811462000ea057600080fd5b600080604083850312156200309657600080fd5b50508035926020909101359150565b60008060808385031215620030b957600080fd5b620030c48362002c3d565b915062002c80846020850162002dd0565b60008060408385031215620030e957600080fd5b620030f48362002c3d565b946020939093013593505050565b6000806000606084860312156200311857600080fd5b620031238462002c3d565b925060208401359150620030246040850162002c3d565b6000604082840312156200314d57600080fd5b6040516040810181811067ffffffffffffffff8211171562003173576200317362002d13565b604052620031818362002dbe565b8152620031916020840162002dbe565b60208201529392505050565b634e487b7160e01b600052603260045260246000fd5b634e487b7160e01b600052601160045260246000fd5b600060018201620031de57620031de620031b3565b5060010190565b60005b8381101562003202578181015183820152602001620031e8565b50506000910152565b6000815180845262003225816020860160208601620031e5565b601f01601f19169290920160200192915050565b6060815260006200324e60608301866200320b565b82810360208401526200326281866200320b565b91505060ff83166040830152949350505050565b808201808211156200076e576200076e620031b3565b818103818111156200076e576200076e620031b3565b80820281158282048414176200076e576200076e620031b3565b600081620032ce57620032ce620031b3565b506000190190565b60ff81811683821601908111156200076e576200076e620031b3565b600061ffff8083168181036200330c576200330c620031b3565b6001019392505050565b6000826200333457634e487b7160e01b600052601260045260246000fd5b500490565b600060ff821660ff8103620033525762003352620031b3565b60010192915050565b6000602082840312156200336e57600080fd5b815162000ea08162002fd2565b7f416363657373436f6e74726f6c3a206163636f756e7420000000000000000000815260008351620033b5816017850160208801620031e5565b7001034b99036b4b9b9b4b733903937b6329607d1b6017918401918201528351620033e8816028840160208801620031e5565b01602801949350505050565b60208152600062000ea060208301846200320b565b634e487b7160e01b600052603160045260246000fd5b6000825162003433818460208701620031e5565b919091019291505056fe60a06040523480156200001157600080fd5b5060405162001dff38038062001dff833981016040819052620000349162000302565b82828181600562000046838262000415565b50600662000055828262000415565b50506007805460ff19169055506200006f600033620000d8565b6200009b7f9f2df0fed2c77648de5860a4cc508cd0818c85b8b8a1ab4ceeef8d981c8956a633620000d8565b620000c77f65d7a28e3265b37a6474929f336521b332c1681b933f6cb9f3376673440d862a33620000d8565b505060ff1660805250620004e19050565b620000e48282620000e8565b5050565b620000ff82826200012b60201b6200095f1760201c565b600082815260016020908152604090912062000126918390620009e3620001cb821b17901c565b505050565b6000828152602081815260408083206001600160a01b038516845290915290205460ff16620000e4576000828152602081815260408083206001600160a01b03851684529091529020805460ff19166001179055620001873390565b6001600160a01b0316816001600160a01b0316837f2f8788117e7eff1d82e926ec794901d17c78024a50270940304540a733656f0d60405160405180910390a45050565b6000620001e2836001600160a01b038416620001eb565b90505b92915050565b60008181526001830160205260408120546200023457508154600181810184556000848152602080822090930184905584548482528286019093526040902091909155620001e5565b506000620001e5565b634e487b7160e01b600052604160045260246000fd5b600082601f8301126200026557600080fd5b81516001600160401b03808211156200028257620002826200023d565b604051601f8301601f19908116603f01168101908282118183101715620002ad57620002ad6200023d565b81604052838152602092508683858801011115620002ca57600080fd5b600091505b83821015620002ee5785820183015181830184015290820190620002cf565b600093810190920192909252949350505050565b6000806000606084860312156200031857600080fd5b83516001600160401b03808211156200033057600080fd5b6200033e8783880162000253565b945060208601519150808211156200035557600080fd5b50620003648682870162000253565b925050604084015160ff811681146200037c57600080fd5b809150509250925092565b600181811c908216806200039c57607f821691505b602082108103620003bd57634e487b7160e01b600052602260045260246000fd5b50919050565b601f8211156200012657600081815260208120601f850160051c81016020861015620003ec5750805b601f850160051c820191505b818110156200040d57828155600101620003f8565b505050505050565b81516001600160401b038111156200043157620004316200023d565b620004498162000442845462000387565b84620003c3565b602080601f831160018114620004815760008415620004685750858301515b600019600386901b1c1916600185901b1785556200040d565b600085815260208120601f198616915b82811015620004b25788860151825594840194600190910190840162000491565b5085821015620004d15787850151600019600388901b60f8161c191681555b5050505050600190811b01905550565b608051611902620004fd600039600061027d01526119026000f3fe608060405234801561001057600080fd5b50600436106101c45760003560e01c806370a08231116100f9578063a457c2d711610097578063d539139311610071578063d5391393146103d1578063d547741f146103f8578063dd62ed3e1461040b578063e63ab1e91461041e57600080fd5b8063a457c2d714610398578063a9059cbb146103ab578063ca15c873146103be57600080fd5b80639010d07c116100d35780639010d07c1461034a57806391d148541461037557806395d89b4114610388578063a217fddf1461039057600080fd5b806370a082311461030657806379cc67901461032f5780638456cb591461034257600080fd5b8063313ce567116101665780633f4ba83a116101405780633f4ba83a146102cd57806340c10f19146102d557806342966c68146102e85780635c975abb146102fb57600080fd5b8063313ce5671461027657806336568abe146102a757806339509351146102ba57600080fd5b806318160ddd116101a257806318160ddd1461021957806323b872dd1461022b578063248a9ca31461023e5780632f2ff15d1461026157600080fd5b806301ffc9a7146101c957806306fdde03146101f1578063095ea7b314610206575b600080fd5b6101dc6101d73660046115c2565b610445565b60405190151581526020015b60405180910390f35b6101f9610470565b6040516101e89190611610565b6101dc61021436600461165f565b610502565b6004545b6040519081526020016101e8565b6101dc610239366004611689565b61051a565b61021d61024c3660046116c5565b60009081526020819052604090206001015490565b61027461026f3660046116de565b61053e565b005b60405160ff7f00000000000000000000000000000000000000000000000000000000000000001681526020016101e8565b6102746102b53660046116de565b610568565b6101dc6102c836600461165f565b6105eb565b61027461060d565b6102746102e336600461165f565b6106b3565b6102746102f63660046116c5565b610752565b60075460ff166101dc565b61021d61031436600461170a565b6001600160a01b031660009081526002602052604090205490565b61027461033d36600461165f565b61075f565b610274610774565b61035d610358366004611725565b610818565b6040516001600160a01b0390911681526020016101e8565b6101dc6103833660046116de565b610837565b6101f9610860565b61021d600081565b6101dc6103a636600461165f565b61086f565b6101dc6103b936600461165f565b6108ea565b61021d6103cc3660046116c5565b6108f8565b61021d7f9f2df0fed2c77648de5860a4cc508cd0818c85b8b8a1ab4ceeef8d981c8956a681565b6102746104063660046116de565b61090f565b61021d610419366004611747565b610934565b61021d7f65d7a28e3265b37a6474929f336521b332c1681b933f6cb9f3376673440d862a81565b60006001600160e01b03198216635a05180f60e01b148061046a575061046a826109f8565b92915050565b60606005805461047f90611771565b80601f01602080910402602001604051908101604052809291908181526020018280546104ab90611771565b80156104f85780601f106104cd576101008083540402835291602001916104f8565b820191906000526020600020905b8154815290600101906020018083116104db57829003601f168201915b5050505050905090565b600033610510818585610a2d565b5060019392505050565b600033610528858285610b51565b610533858585610bcb565b506001949350505050565b60008281526020819052604090206001015461055981610da4565b6105638383610dae565b505050565b6001600160a01b03811633146105dd5760405162461bcd60e51b815260206004820152602f60248201527f416363657373436f6e74726f6c3a2063616e206f6e6c792072656e6f756e636560448201526e103937b632b9903337b91039b2b63360891b60648201526084015b60405180910390fd5b6105e78282610dd0565b5050565b6000336105108185856105fe8383610934565b61060891906117c1565b610a2d565b6106377f65d7a28e3265b37a6474929f336521b332c1681b933f6cb9f3376673440d862a33610837565b6106a95760405162461bcd60e51b815260206004820152603960248201527f45524332305072657365744d696e7465725061757365723a206d75737420686160448201527f76652070617573657220726f6c6520746f20756e70617573650000000000000060648201526084016105d4565b6106b1610df2565b565b6106dd7f9f2df0fed2c77648de5860a4cc508cd0818c85b8b8a1ab4ceeef8d981c8956a633610837565b6107485760405162461bcd60e51b815260206004820152603660248201527f45524332305072657365744d696e7465725061757365723a206d7573742068616044820152751d99481b5a5b9d195c881c9bdb19481d1bc81b5a5b9d60521b60648201526084016105d4565b6105e78282610e44565b61075c3382610f2f565b50565b61076a823383610b51565b6105e78282610f2f565b61079e7f65d7a28e3265b37a6474929f336521b332c1681b933f6cb9f3376673440d862a33610837565b6108105760405162461bcd60e51b815260206004820152603760248201527f45524332305072657365744d696e7465725061757365723a206d75737420686160448201527f76652070617573657220726f6c6520746f20706175736500000000000000000060648201526084016105d4565b6106b1611089565b600082815260016020526040812061083090836110c6565b9392505050565b6000918252602082815260408084206001600160a01b0393909316845291905290205460ff1690565b60606006805461047f90611771565b6000338161087d8286610934565b9050838110156108dd5760405162461bcd60e51b815260206004820152602560248201527f45524332303a2064656372656173656420616c6c6f77616e63652062656c6f77604482015264207a65726f60d81b60648201526084016105d4565b6105338286868403610a2d565b600033610510818585610bcb565b600081815260016020526040812061046a906110d2565b60008281526020819052604090206001015461092a81610da4565b6105638383610dd0565b6001600160a01b03918216600090815260036020908152604080832093909416825291909152205490565b6109698282610837565b6105e7576000828152602081815260408083206001600160a01b03851684529091529020805460ff1916600117905561099f3390565b6001600160a01b0316816001600160a01b0316837f2f8788117e7eff1d82e926ec794901d17c78024a50270940304540a733656f0d60405160405180910390a45050565b6000610830836001600160a01b0384166110dc565b60006001600160e01b03198216637965db0b60e01b148061046a57506301ffc9a760e01b6001600160e01b031983161461046a565b6001600160a01b038316610a8f5760405162461bcd60e51b8152602060048201526024808201527f45524332303a20617070726f76652066726f6d20746865207a65726f206164646044820152637265737360e01b60648201526084016105d4565b6001600160a01b038216610af05760405162461bcd60e51b815260206004820152602260248201527f45524332303a20617070726f766520746f20746865207a65726f206164647265604482015261737360f01b60648201526084016105d4565b6001600160a01b0383811660008181526003602090815260408083209487168084529482529182902085905590518481527f8c5be1e5ebec7d5bd14f71427d1e84f3dd0314c0f7b2291e5b200ac8c7c3b925910160405180910390a3505050565b6000610b5d8484610934565b90506000198114610bc55781811015610bb85760405162461bcd60e51b815260206004820152601d60248201527f45524332303a20696e73756666696369656e7420616c6c6f77616e636500000060448201526064016105d4565b610bc58484848403610a2d565b50505050565b6001600160a01b038316610c2f5760405162461bcd60e51b815260206004820152602560248201527f45524332303a207472616e736665722066726f6d20746865207a65726f206164604482015264647265737360d81b60648201526084016105d4565b6001600160a01b038216610c915760405162461bcd60e51b815260206004820152602360248201527f45524332303a207472616e7366657220746f20746865207a65726f206164647260448201526265737360e81b60648201526084016105d4565b610c9c83838361112b565b6001600160a01b03831660009081526002602052604090205481811015610d145760405162461bcd60e51b815260206004820152602660248201527f45524332303a207472616e7366657220616d6f756e7420657863656564732062604482015265616c616e636560d01b60648201526084016105d4565b6001600160a01b03808516600090815260026020526040808220858503905591851681529081208054849290610d4b9084906117c1565b92505081905550826001600160a01b0316846001600160a01b03167fddf252ad1be2c89b69c2b068fc378daa952ba7f163c4a11628f55a4df523b3ef84604051610d9791815260200190565b60405180910390a3610bc5565b61075c8133611136565b610db8828261095f565b600082815260016020526040902061056390826109e3565b610dda828261119a565b600082815260016020526040902061056390826111ff565b610dfa611214565b6007805460ff191690557f5db9ee0a495bf2e6ff9c91a7834c1ba4fdd244a5e8aa4e537bd38aeae4b073aa335b6040516001600160a01b03909116815260200160405180910390a1565b6001600160a01b038216610e9a5760405162461bcd60e51b815260206004820152601f60248201527f45524332303a206d696e7420746f20746865207a65726f20616464726573730060448201526064016105d4565b610ea66000838361112b565b8060046000828254610eb891906117c1565b90915550506001600160a01b03821660009081526002602052604081208054839290610ee59084906117c1565b90915550506040518181526001600160a01b038316906000907fddf252ad1be2c89b69c2b068fc378daa952ba7f163c4a11628f55a4df523b3ef9060200160405180910390a35050565b6001600160a01b038216610f8f5760405162461bcd60e51b815260206004820152602160248201527f45524332303a206275726e2066726f6d20746865207a65726f206164647265736044820152607360f81b60648201526084016105d4565b610f9b8260008361112b565b6001600160a01b0382166000908152600260205260409020548181101561100f5760405162461bcd60e51b815260206004820152602260248201527f45524332303a206275726e20616d6f756e7420657863656564732062616c616e604482015261636560f01b60648201526084016105d4565b6001600160a01b038316600090815260026020526040812083830390556004805484929061103e9084906117d4565b90915550506040518281526000906001600160a01b038516907fddf252ad1be2c89b69c2b068fc378daa952ba7f163c4a11628f55a4df523b3ef9060200160405180910390a3505050565b61109161125d565b6007805460ff191660011790557f62e78cea01bee320cd4e420270b5ea74000d11b0c9f74754ebdbfc544b05a258610e273390565b600061083083836112a3565b600061046a825490565b60008181526001830160205260408120546111235750815460018181018455600084815260208082209093018490558454848252828601909352604090209190915561046a565b50600061046a565b6105638383836112cd565b6111408282610837565b6105e757611158816001600160a01b03166014611333565b611163836020611333565b6040516020016111749291906117e7565b60408051601f198184030181529082905262461bcd60e51b82526105d491600401611610565b6111a48282610837565b156105e7576000828152602081815260408083206001600160a01b0385168085529252808320805460ff1916905551339285917ff6391f5c32d9c69d2a47ea670b442974b53935d1edc7fd64eb21e047a839171b9190a45050565b6000610830836001600160a01b0384166114cf565b60075460ff166106b15760405162461bcd60e51b815260206004820152601460248201527314185d5cd8589b194e881b9bdd081c185d5cd95960621b60448201526064016105d4565b60075460ff16156106b15760405162461bcd60e51b815260206004820152601060248201526f14185d5cd8589b194e881c185d5cd95960821b60448201526064016105d4565b60008260000182815481106112ba576112ba61185c565b9060005260206000200154905092915050565b60075460ff16156105635760405162461bcd60e51b815260206004820152602a60248201527f45524332305061757361626c653a20746f6b656e207472616e736665722077686044820152691a5b19481c185d5cd95960b21b60648201526084016105d4565b60606000611342836002611872565b61134d9060026117c1565b67ffffffffffffffff81111561136557611365611889565b6040519080825280601f01601f19166020018201604052801561138f576020820181803683370190505b509050600360fc1b816000815181106113aa576113aa61185c565b60200101906001600160f81b031916908160001a905350600f60fb1b816001815181106113d9576113d961185c565b60200101906001600160f81b031916908160001a90535060006113fd846002611872565b6114089060016117c1565b90505b6001811115611480576f181899199a1a9b1b9c1cb0b131b232b360811b85600f166010811061143c5761143c61185c565b1a60f81b8282815181106114525761145261185c565b60200101906001600160f81b031916908160001a90535060049490941c936114798161189f565b905061140b565b5083156108305760405162461bcd60e51b815260206004820181905260248201527f537472696e67733a20686578206c656e67746820696e73756666696369656e7460448201526064016105d4565b600081815260018301602052604081205480156115b85760006114f36001836117d4565b8554909150600090611507906001906117d4565b905081811461156c5760008660000182815481106115275761152761185c565b906000526020600020015490508087600001848154811061154a5761154a61185c565b6000918252602080832090910192909255918252600188019052604090208390555b855486908061157d5761157d6118b6565b60019003818190600052602060002001600090559055856001016000868152602001908152602001600020600090556001935050505061046a565b600091505061046a565b6000602082840312156115d457600080fd5b81356001600160e01b03198116811461083057600080fd5b60005b838110156116075781810151838201526020016115ef565b50506000910152565b602081526000825180602084015261162f8160408501602087016115ec565b601f01601f19169190910160400192915050565b80356001600160a01b038116811461165a57600080fd5b919050565b6000806040838503121561167257600080fd5b61167b83611643565b946020939093013593505050565b60008060006060848603121561169e57600080fd5b6116a784611643565b92506116b560208501611643565b9150604084013590509250925092565b6000602082840312156116d757600080fd5b5035919050565b600080604083850312156116f157600080fd5b8235915061170160208401611643565b90509250929050565b60006020828403121561171c57600080fd5b61083082611643565b6000806040838503121561173857600080fd5b50508035926020909101359150565b6000806040838503121561175a57600080fd5b61176383611643565b915061170160208401611643565b600181811c9082168061178557607f821691505b6020821081036117a557634e487b7160e01b600052602260045260246000fd5b50919050565b634e487b7160e01b600052601160045260246000fd5b8082018082111561046a5761046a6117ab565b8181038181111561046a5761046a6117ab565b7f416363657373436f6e74726f6c3a206163636f756e742000000000000000000081526000835161181f8160178501602088016115ec565b7001034b99036b4b9b9b4b733903937b6329607d1b60179184019182015283516118508160288401602088016115ec565b01602801949350505050565b634e487b7160e01b600052603260045260246000fd5b808202811582820484141761046a5761046a6117ab565b634e487b7160e01b600052604160045260246000fd5b6000816118ae576118ae6117ab565b506000190190565b634e487b7160e01b600052603160045260246000fdfea2646970667358221220f6070dfc0e95ca26b4f4c30364955d43a8953da748e317fa9d7a3a64368a969064736f6c63430008110033930fce5230a9f921042304dfd119e1ad0bbc7d9c38c01b0505d47cf8b65d228ca264697066735822122045a38382fc06139f8441e5b84c1b8c7471d260bd6c11511259b36df4665e912564736f6c63430008110033930fce5230a9f921042304dfd119e1ad0bbc7d9c38c01b0505d47cf8b65d228c0000000000000000000000000000000000000000000000000000000000000001000000000000000000000000000000000000000000000000000000000000000200000000000000000000000000000000000000000000000000000000000000320000000000000000000000000000000000000000000000000000000000000032",
            "nonce": "0x0"
          },
          "additionalContracts": []
        },
        {
          "hash": "0x7f706f7ef398c2d057fe721ca67153143746b9cac067c234b98cc4d2602ca544",
          "transactionType": "CALL",
          "contractName": "WrapMintBurn",
          "contractAddress": "0xD5308A4Bb2D7121A26d0bd11257245F0EFDa2bc4",
          "function": "addValidator(address,bool,address)",
          "arguments": [
            "0xef7F2AD219aed662AD753F9DCEfc0b4B94845A09",
            "true",
            "0x0179D1169F0C7E7C68D99dD01B07664FcCc3A801"
          ],
          "rpc": "https://sgb.ftso.com.au/ext/bc/C/rpc",
          "transaction": {
            "type": "0x00",
            "from": "0x3e72022ec1841993482f94182ae186593ce512dc",
            "to": "0xd5308a4bb2d7121a26d0bd11257245f0efda2bc4",
            "gas": "0x1a00e",
            "value": "0x0",
            "data": "0x73445f00000000000000000000000000ef7f2ad219aed662ad753f9dcefc0b4b94845a0900000000000000000000000000000000000000000000000000000000000000010000000000000000000000000179d1169f0c7e7c68d99dd01b07664fccc3a801",
            "nonce": "0x1"
          },
          "additionalContracts": []
        },
        {
          "hash": "0x356d6e45a9291a2e30655a6fd69eca5f0863459ead2a52e13b32f4520b69d4ae",
          "transactionType": "CALL",
          "contractName": "WrapMintBurn",
          "contractAddress": "0xD5308A4Bb2D7121A26d0bd11257245F0EFDa2bc4",
          "function": "addValidator(address,bool,address)",
          "arguments": [
            "0x833BE161e9f24b7BE8EF2852d3214A3E348Bc7fB",
            "true",
            "0x4eC38Cf39bA033b994db0B8c86F999fda6EB0A8D"
          ],
          "rpc": "https://sgb.ftso.com.au/ext/bc/C/rpc",
          "transaction": {
            "type": "0x00",
            "from": "0x3e72022ec1841993482f94182ae186593ce512dc",
            "to": "0xd5308a4bb2d7121a26d0bd11257245f0efda2bc4",
            "gas": "0x1a00e",
            "value": "0x0",
            "data": "0x73445f00000000000000000000000000833be161e9f24b7be8ef2852d3214a3e348bc7fb00000000000000000000000000000000000000000000000000000000000000010000000000000000000000004ec38cf39ba033b994db0b8c86f999fda6eb0a8d",
            "nonce": "0x2"
          },
          "additionalContracts": []
        },
        {
          "hash": "0xc6553bf90d15fc0ae0812fe1318ba74601f6ae8bcf640141ba1a9d87d74d1c6f",
          "transactionType": "CALL",
          "contractName": "WrapMintBurn",
          "contractAddress": "0xD5308A4Bb2D7121A26d0bd11257245F0EFDa2bc4",
          "function": "addValidator(address,bool,address)",
          "arguments": [
            "0x478Aad282c8618bAbADEe8871a099F1D2cF1E55B",
            "false",
            "0xd3eCc0B36C76A40773876569bf3C7C539b2c4c48"
          ],
          "rpc": "https://sgb.ftso.com.au/ext/bc/C/rpc",
          "transaction": {
            "type": "0x00",
            "from": "0x3e72022ec1841993482f94182ae186593ce512dc",
            "to": "0xd5308a4bb2d7121a26d0bd11257245f0efda2bc4",
            "gas": "0x19ffd",
            "value": "0x0",
            "data": "0x73445f00000000000000000000000000478aad282c8618babadee8871a099f1d2cf1e55b0000000000000000000000000000000000000000000000000000000000000000000000000000000000000000d3ecc0b36c76a40773876569bf3c7c539b2c4c48",
            "nonce": "0x3"
          },
          "additionalContracts": []
        },
        {
          "hash": "0x012ae774659d6794fb1bedcbd905bbc4e1178662334dd80f62b3123977d97449",
          "transactionType": "CALL",
          "contractName": "WrapMintBurn",
          "contractAddress": "0xD5308A4Bb2D7121A26d0bd11257245F0EFDa2bc4",
          "function": "addValidator(address,bool,address)",
          "arguments": [
            "0x88d265063aC4B082d3FF38E28e03E162C3fDceBc",
            "false",
            "0xa5a6ee3F666CA842aeD9806FA5e8Ada075d40fD7"
          ],
          "rpc": "https://sgb.ftso.com.au/ext/bc/C/rpc",
          "transaction": {
            "type": "0x00",
            "from": "0x3e72022ec1841993482f94182ae186593ce512dc",
            "to": "0xd5308a4bb2d7121a26d0bd11257245f0efda2bc4",
            "gas": "0x19ffd",
            "value": "0x0",
            "data": "0x73445f0000000000000000000000000088d265063ac4b082d3ff38e28e03e162c3fdcebc0000000000000000000000000000000000000000000000000000000000000000000000000000000000000000a5a6ee3f666ca842aed9806fa5e8ada075d40fd7",
            "nonce": "0x4"
          },
          "additionalContracts": []
        },
        {
          "hash": "0x87aa472cda9c2028baf060757903c40743035360071e946241099398b7bb9d96",
          "transactionType": "CALL",
          "contractName": "WrapMintBurn",
          "contractAddress": "0xD5308A4Bb2D7121A26d0bd11257245F0EFDa2bc4",
          "function": "addValidator(address,bool,address)",
          "arguments": [
            "0xa4D96279D9741970BB8FED137e1AA5E43F4e6f66",
            "false",
            "0x01986D115285267b586723fa4EE26d3BCa2e570e"
          ],
          "rpc": "https://sgb.ftso.com.au/ext/bc/C/rpc",
          "transaction": {
            "type": "0x00",
            "from": "0x3e72022ec1841993482f94182ae186593ce512dc",
            "to": "0xd5308a4bb2d7121a26d0bd11257245f0efda2bc4",
            "gas": "0x19ffd",
            "value": "0x0",
            "data": "0x73445f00000000000000000000000000a4d96279d9741970bb8fed137e1aa5e43f4e6f66000000000000000000000000000000000000000000000000000000000000000000000000000000000000000001986d115285267b586723fa4ee26d3bca2e570e",
            "nonce": "0x5"
          },
          "additionalContracts": []
        },
        {
          "hash": "0x202ee8c17b02733bbef5dbe2eba213a54c9e392f086a74f5dd62774d032f6019",
          "transactionType": "CALL",
          "contractName": "WrapMintBurn",
          "contractAddress": "0xD5308A4Bb2D7121A26d0bd11257245F0EFDa2bc4",
          "function": "createAddToken(string,string,address,address,uint8,(uint256,uint256,uint256)):(address)",
          "arguments": [
            "Experimental Wrapped XDC",
            "exXDC",
            "0xC54De96302981f87a6F80E4607593681B44d670c",
            "0x951857744785E80e2De051c32EE7b25f9c458C42",
            "18",
            "(25000000000000000000000, 1000000000000000000, 120000000000000000000000)"
          ],
          "rpc": "https://sgb.ftso.com.au/ext/bc/C/rpc",
          "transaction": {
            "type": "0x00",
            "from": "0x3e72022ec1841993482f94182ae186593ce512dc",
            "to": "0xd5308a4bb2d7121a26d0bd11257245f0efda2bc4",
            "gas": "0x4b116",
            "value": "0x0",
            "data": "0x5bfb29aa00000000000000000000000000000000000000000000000000000000000001000000000000000000000000000000000000000000000000000000000000000140000000000000000000000000c54de96302981f87a6f80e4607593681b44d670c000000000000000000000000951857744785e80e2de051c32ee7b25f9c458c42000000000000000000000000000000000000000000000000000000000000001200000000000000000000000000000000000000000000054b40b1f852bda000000000000000000000000000000000000000000000000000000de0b6b3a7640000000000000000000000000000000000000000000000001969368974c05b00000000000000000000000000000000000000000000000000000000000000000000184578706572696d656e74616c205772617070656420584443000000000000000000000000000000000000000000000000000000000000000000000000000000056578584443000000000000000000000000000000000000000000000000000000",
            "nonce": "0x6"
          },
          "additionalContracts": []
        },
        {
          "hash": "0xa0d333d3d5c6a9fc3196942846a9d9120dc2b728ae581e784db9e4e34a840006",
          "transactionType": "CALL",
          "contractName": "WrapMintBurn",
          "contractAddress": "0xD5308A4Bb2D7121A26d0bd11257245F0EFDa2bc4",
          "function": "grantRole(bytes32,address)",
          "arguments": [
            "0xfcb9fcbfa83b897fb2d5cf4b58962164105c1e71489a37ef3ae0db3fdce576f6",
            "0xE23212a61645e5a087299Ae60f41Be1e980242Ac"
          ],
          "rpc": "https://sgb.ftso.com.au/ext/bc/C/rpc",
          "transaction": {
            "type": "0x00",
            "from": "0x3e72022ec1841993482f94182ae186593ce512dc",
            "to": "0xd5308a4bb2d7121a26d0bd11257245f0efda2bc4",
            "gas": "0x27ece",
            "value": "0x0",
            "data": "0x2f2ff15dfcb9fcbfa83b897fb2d5cf4b58962164105c1e71489a37ef3ae0db3fdce576f6000000000000000000000000e23212a61645e5a087299ae60f41be1e980242ac",
            "nonce": "0x7"
          },
          "additionalContracts": []
        },
        {
          "hash": "0xb4fa9b8c950d8d91ce704579cd4ab0c8779c4bb1aab6c87e57dba4da5d5f5b0f",
          "transactionType": "CALL",
          "contractName": "WrapMintBurn",
          "contractAddress": "0xD5308A4Bb2D7121A26d0bd11257245F0EFDa2bc4",
          "function": "grantRole(bytes32,address)",
          "arguments": [
            "0xfcb9fcbfa83b897fb2d5cf4b58962164105c1e71489a37ef3ae0db3fdce576f6",
            "0x3e72022EC1841993482f94182ae186593CE512DC"
          ],
          "rpc": "https://sgb.ftso.com.au/ext/bc/C/rpc",
          "transaction": {
            "type": "0x00",
            "from": "0x3e72022ec1841993482f94182ae186593ce512dc",
            "to": "0xd5308a4bb2d7121a26d0bd11257245f0efda2bc4",
            "gas": "0x242b2",
            "value": "0x0",
            "data": "0x2f2ff15dfcb9fcbfa83b897fb2d5cf4b58962164105c1e71489a37ef3ae0db3fdce576f60000000000000000000000003e72022ec1841993482f94182ae186593ce512dc",
            "nonce": "0x8"
          },
          "additionalContracts": []
        },
        {
          "hash": "0xe47abf80431868fa7de2560446e6c54a11b4621bc434419c4fe13069ce3821ac",
          "transactionType": "CALL",
          "contractName": "WrapMintBurn",
          "contractAddress": "0xD5308A4Bb2D7121A26d0bd11257245F0EFDa2bc4",
          "function": "grantRole(bytes32,address)",
          "arguments": [
            "0x930fce5230a9f921042304dfd119e1ad0bbc7d9c38c01b0505d47cf8b65d228c",
            "0xff1d9082f53D0d865207120215e99c054c1B2F80"
          ],
          "rpc": "https://sgb.ftso.com.au/ext/bc/C/rpc",
          "transaction": {
            "type": "0x00",
            "from": "0x3e72022ec1841993482f94182ae186593ce512dc",
            "to": "0xd5308a4bb2d7121a26d0bd11257245f0efda2bc4",
            "gas": "0x242b2",
            "value": "0x0",
            "data": "0x2f2ff15d930fce5230a9f921042304dfd119e1ad0bbc7d9c38c01b0505d47cf8b65d228c000000000000000000000000ff1d9082f53d0d865207120215e99c054c1b2f80",
            "nonce": "0x9"
          },
          "additionalContracts": []
        },
        {
          "hash": "0x6c7212fb128672165563cc617d62a7ffee7232840cf09e3289263e657ff230f5",
          "transactionType": "CALL",
          "contractName": "WrapMintBurn",
          "contractAddress": "0xD5308A4Bb2D7121A26d0bd11257245F0EFDa2bc4",
          "function": "grantRole(bytes32,address)",
          "arguments": [
            "0x0000000000000000000000000000000000000000000000000000000000000000",
            "0x47CA3C9158AB77B432bFAc6B83EE5c4d53D0C49F"
          ],
          "rpc": "https://sgb.ftso.com.au/ext/bc/C/rpc",
          "transaction": {
            "type": "0x00",
            "from": "0x3e72022ec1841993482f94182ae186593ce512dc",
            "to": "0xd5308a4bb2d7121a26d0bd11257245f0efda2bc4",
            "gas": "0x24081",
            "value": "0x0",
            "data": "0x2f2ff15d000000000000000000000000000000000000000000000000000000000000000000000000000000000000000047ca3c9158ab77b432bfac6b83ee5c4d53d0c49f",
            "nonce": "0xa"
          },
          "additionalContracts": []
        }
      ],
      "receipts": [
        {
          "transactionHash": "0x9a5df52eb6f17704877559685099a3bedde5e77bd6fbfe671001f784a8ca00b3",
          "transactionIndex": "0x1",
          "blockHash": "0x60731c44ca23c8aac66d4995ee2032f6ebe1c92b3e6b60dc683e60ce1fd9d83f",
          "blockNumber": "0x20d5692",
          "from": "0x3e72022EC1841993482f94182ae186593CE512DC",
          "to": null,
          "cumulativeGasUsed": "0x4e30ab",
          "gasUsed": "0x4b2877",
          "contractAddress": "0xD5308A4Bb2D7121A26d0bd11257245F0EFDa2bc4",
          "logs": [
            {
              "address": "0xD5308A4Bb2D7121A26d0bd11257245F0EFDa2bc4",
              "topics": [
                "0x2f8788117e7eff1d82e926ec794901d17c78024a50270940304540a733656f0d",
                "0x0000000000000000000000000000000000000000000000000000000000000000",
                "0x0000000000000000000000003e72022ec1841993482f94182ae186593ce512dc",
                "0x0000000000000000000000003e72022ec1841993482f94182ae186593ce512dc"
              ],
              "data": "0x",
              "blockHash": "0x60731c44ca23c8aac66d4995ee2032f6ebe1c92b3e6b60dc683e60ce1fd9d83f",
              "blockNumber": "0x20d5692",
              "transactionHash": "0x9a5df52eb6f17704877559685099a3bedde5e77bd6fbfe671001f784a8ca00b3",
              "transactionIndex": "0x1",
              "logIndex": "0x4",
              "removed": false
            },
            {
              "address": "0xD5308A4Bb2D7121A26d0bd11257245F0EFDa2bc4",
              "topics": [
                "0x2f8788117e7eff1d82e926ec794901d17c78024a50270940304540a733656f0d",
                "0x930fce5230a9f921042304dfd119e1ad0bbc7d9c38c01b0505d47cf8b65d228c",
                "0x0000000000000000000000003e72022ec1841993482f94182ae186593ce512dc",
                "0x0000000000000000000000003e72022ec1841993482f94182ae186593ce512dc"
              ],
              "data": "0x",
              "blockHash": "0x60731c44ca23c8aac66d4995ee2032f6ebe1c92b3e6b60dc683e60ce1fd9d83f",
              "blockNumber": "0x20d5692",
              "transactionHash": "0x9a5df52eb6f17704877559685099a3bedde5e77bd6fbfe671001f784a8ca00b3",
              "transactionIndex": "0x1",
              "logIndex": "0x5",
              "removed": false
            },
            {
              "address": "0xD5308A4Bb2D7121A26d0bd11257245F0EFDa2bc4",
              "topics": [
                "0xbd79b86ffe0ab8e8776151514217cd7cacd52c909f66475c3af44e129f0b00ff",
                "0xfcb9fcbfa83b897fb2d5cf4b58962164105c1e71489a37ef3ae0db3fdce576f6",
                "0x0000000000000000000000000000000000000000000000000000000000000000",
                "0x930fce5230a9f921042304dfd119e1ad0bbc7d9c38c01b0505d47cf8b65d228c"
              ],
              "data": "0x",
              "blockHash": "0x60731c44ca23c8aac66d4995ee2032f6ebe1c92b3e6b60dc683e60ce1fd9d83f",
              "blockNumber": "0x20d5692",
              "transactionHash": "0x9a5df52eb6f17704877559685099a3bedde5e77bd6fbfe671001f784a8ca00b3",
              "transactionIndex": "0x1",
              "logIndex": "0x6",
              "removed": false
            }
          ],
          "status": "0x1",
          "logsBloom": "0x00000004000000000800000000000000080000000000000000000000004000000000000000000000000000000000000000000000000000000100000000800000000000000000000000000000000000000000000000000000000000040000000000000010020000400000000000000800000000000000000000000000000000000000000000000000000004000000000000000020000000000000000002000000000000000000000000000000000000000000008000040000001000000000000000000000000000000000000000000000000000000000000180000000000020000000000000000000000000000000000000000000000002000000000000000000",
          "type": "0x0",
          "effectiveGasPrice": "0x5d21dba00"
        },
        {
          "transactionHash": "0x7f706f7ef398c2d057fe721ca67153143746b9cac067c234b98cc4d2602ca544",
          "transactionIndex": "0x0",
          "blockHash": "0xa6a8c9d96b03266d5ac5e3d22a71dc55e0bd99ce625f9c34ed3ab6cc682968d5",
          "blockNumber": "0x20d569c",
          "from": "0x3e72022EC1841993482f94182ae186593CE512DC",
          "to": "0xD5308A4Bb2D7121A26d0bd11257245F0EFDa2bc4",
          "cumulativeGasUsed": "0x12d38",
          "gasUsed": "0x12d38",
          "contractAddress": null,
          "logs": [
            {
              "address": "0xD5308A4Bb2D7121A26d0bd11257245F0EFDa2bc4",
              "topics": [
                "0x986fcaacc4ec3bd003cca4a358313c174dbc682df73d495e8af308dc55b027a1",
                "0x000000000000000000000000ef7f2ad219aed662ad753f9dcefc0b4b94845a09",
                "0x0000000000000000000000000000000000000000000000000000000000000001"
              ],
              "data": "0x",
              "blockHash": "0xa6a8c9d96b03266d5ac5e3d22a71dc55e0bd99ce625f9c34ed3ab6cc682968d5",
              "blockNumber": "0x20d569c",
              "transactionHash": "0x7f706f7ef398c2d057fe721ca67153143746b9cac067c234b98cc4d2602ca544",
              "transactionIndex": "0x0",
              "logIndex": "0x0",
              "removed": false
            },
            {
              "address": "0x1000000000000000000000000000000000000002",
              "topics": [
                "0xe7aa66356adbd5e839ef210626f6d8f6f72109c17fadf4c4f9ca82b315ae79b4"
              ],
              "data": "0x00000000000000000000000087e80e90eaca1d458dfdf60a9d697e7e83ab02b20000000000000000000000000000000000000000000000000000000000004234",
              "blockHash": "0xa6a8c9d96b03266d5ac5e3d22a71dc55e0bd99ce625f9c34ed3ab6cc682968d5",
              "blockNumber": "0x20d569c",
              "transactionHash": "0x7f706f7ef398c2d057fe721ca67153143746b9cac067c234b98cc4d2602ca544",
              "transactionIndex": "0x0",
              "logIndex": "0x1",
              "removed": false
            },
            {
              "address": "0x1000000000000000000000000000000000000002",
              "topics": [
                "0xe7aa66356adbd5e839ef210626f6d8f6f72109c17fadf4c4f9ca82b315ae79b4"
              ],
              "data": "0x0000000000000000000000007a6b15e17b7691ba687ad182bd12cb4a91d533ae0000000000000000000000000000000000000000000000000000000000003099",
              "blockHash": "0xa6a8c9d96b03266d5ac5e3d22a71dc55e0bd99ce625f9c34ed3ab6cc682968d5",
              "blockNumber": "0x20d569c",
              "transactionHash": "0x7f706f7ef398c2d057fe721ca67153143746b9cac067c234b98cc4d2602ca544",
              "transactionIndex": "0x0",
              "logIndex": "0x2",
              "removed": false
            }
          ],
          "status": "0x1",
          "logsBloom": "0x00020000000000000000000000000000000000000000200000000000000000000000000000000000000000000000000000200000000000000000000000840000000000000000000000400000000000000000000000040000000082000000000000000010000000000000000000000000000000000000000001000000000000000000000000000000000000000000000000000000000000000000000400000000080800000000000000000000000000000000000000040000000000000000000000000080000000000000000000000000000000000000000080000000000040000000000000000000000000000000000000000000000000000000000000000000",
          "type": "0x0",
          "effectiveGasPrice": "0x5d21dba00"
        },
        {
          "transactionHash": "0x356d6e45a9291a2e30655a6fd69eca5f0863459ead2a52e13b32f4520b69d4ae",
          "transactionIndex": "0x0",
          "blockHash": "0x1aed78d34d4bf0b3641e96d8a3b18962667d90072e41b4cb006fa8883d866faf",
          "blockNumber": "0x20d56a1",
          "from": "0x3e72022EC1841993482f94182ae186593CE512DC",
          "to": "0xD5308A4Bb2D7121A26d0bd11257245F0EFDa2bc4",
          "cumulativeGasUsed": "0x12d38",
          "gasUsed": "0x12d38",
          "contractAddress": null,
          "logs": [
            {
              "address": "0xD5308A4Bb2D7121A26d0bd11257245F0EFDa2bc4",
              "topics": [
                "0x986fcaacc4ec3bd003cca4a358313c174dbc682df73d495e8af308dc55b027a1",
                "0x000000000000000000000000833be161e9f24b7be8ef2852d3214a3e348bc7fb",
                "0x0000000000000000000000000000000000000000000000000000000000000001"
              ],
              "data": "0x",
              "blockHash": "0x1aed78d34d4bf0b3641e96d8a3b18962667d90072e41b4cb006fa8883d866faf",
              "blockNumber": "0x20d56a1",
              "transactionHash": "0x356d6e45a9291a2e30655a6fd69eca5f0863459ead2a52e13b32f4520b69d4ae",
              "transactionIndex": "0x0",
              "logIndex": "0x0",
              "removed": false
            },
            {
              "address": "0x1000000000000000000000000000000000000002",
              "topics": [
                "0xe7aa66356adbd5e839ef210626f6d8f6f72109c17fadf4c4f9ca82b315ae79b4"
              ],
              "data": "0x00000000000000000000000087e80e90eaca1d458dfdf60a9d697e7e83ab02b20000000000000000000000000000000000000000000000000000000000004234",
              "blockHash": "0x1aed78d34d4bf0b3641e96d8a3b18962667d90072e41b4cb006fa8883d866faf",
              "blockNumber": "0x20d56a1",
              "transactionHash": "0x356d6e45a9291a2e30655a6fd69eca5f0863459ead2a52e13b32f4520b69d4ae",
              "transactionIndex": "0x0",
              "logIndex": "0x1",
              "removed": false
            },
            {
              "address": "0x1000000000000000000000000000000000000002",
              "topics": [
                "0xe7aa66356adbd5e839ef210626f6d8f6f72109c17fadf4c4f9ca82b315ae79b4"
              ],
              "data": "0x0000000000000000000000007a6b15e17b7691ba687ad182bd12cb4a91d533ae0000000000000000000000000000000000000000000000000000000000003099",
              "blockHash": "0x1aed78d34d4bf0b3641e96d8a3b18962667d90072e41b4cb006fa8883d866faf",
              "blockNumber": "0x20d56a1",
              "transactionHash": "0x356d6e45a9291a2e30655a6fd69eca5f0863459ead2a52e13b32f4520b69d4ae",
              "transactionIndex": "0x0",
              "logIndex": "0x2",
              "removed": false
            }
          ],
          "status": "0x1",
          "logsBloom": "0x00020000000000000000000000000000000000000000200000000000000000000000000000000000000000000000000000000000000000000000000000040000000000000000000040400000000000000000000000040000000082800000000000000010000000000000000000000000000000000000000001000000000000000000000000000000000000000000000000000000000000000000000400000000080800000000000000000000000000000000008000040000000000000000000000000000000000000000000000000000000000000000000080000000000040000000000000000000000000000000000000000000000000000000000000000000",
          "type": "0x0",
          "effectiveGasPrice": "0x5d21dba00"
        },
        {
          "transactionHash": "0xc6553bf90d15fc0ae0812fe1318ba74601f6ae8bcf640141ba1a9d87d74d1c6f",
          "transactionIndex": "0x0",
          "blockHash": "0x30bb32218632ae8e311a8376ed22a04a6d83a0bc995d79b19c3e0781ddd822bb",
          "blockNumber": "0x20d56aa",
          "from": "0x3e72022EC1841993482f94182ae186593CE512DC",
          "to": "0xD5308A4Bb2D7121A26d0bd11257245F0EFDa2bc4",
          "cumulativeGasUsed": "0x12d2c",
          "gasUsed": "0x12d2c",
          "contractAddress": null,
          "logs": [
            {
              "address": "0xD5308A4Bb2D7121A26d0bd11257245F0EFDa2bc4",
              "topics": [
                "0x986fcaacc4ec3bd003cca4a358313c174dbc682df73d495e8af308dc55b027a1",
                "0x000000000000000000000000478aad282c8618babadee8871a099f1d2cf1e55b",
                "0x0000000000000000000000000000000000000000000000000000000000000000"
              ],
              "data": "0x",
              "blockHash": "0x30bb32218632ae8e311a8376ed22a04a6d83a0bc995d79b19c3e0781ddd822bb",
              "blockNumber": "0x20d56aa",
              "transactionHash": "0xc6553bf90d15fc0ae0812fe1318ba74601f6ae8bcf640141ba1a9d87d74d1c6f",
              "transactionIndex": "0x0",
              "logIndex": "0x0",
              "removed": false
            },
            {
              "address": "0x1000000000000000000000000000000000000002",
              "topics": [
                "0xe7aa66356adbd5e839ef210626f6d8f6f72109c17fadf4c4f9ca82b315ae79b4"
              ],
              "data": "0x00000000000000000000000087e80e90eaca1d458dfdf60a9d697e7e83ab02b20000000000000000000000000000000000000000000000000000000000004234",
              "blockHash": "0x30bb32218632ae8e311a8376ed22a04a6d83a0bc995d79b19c3e0781ddd822bb",
              "blockNumber": "0x20d56aa",
              "transactionHash": "0xc6553bf90d15fc0ae0812fe1318ba74601f6ae8bcf640141ba1a9d87d74d1c6f",
              "transactionIndex": "0x0",
              "logIndex": "0x1",
              "removed": false
            },
            {
              "address": "0x1000000000000000000000000000000000000002",
              "topics": [
                "0xe7aa66356adbd5e839ef210626f6d8f6f72109c17fadf4c4f9ca82b315ae79b4"
              ],
              "data": "0x0000000000000000000000007a6b15e17b7691ba687ad182bd12cb4a91d533ae0000000000000000000000000000000000000000000000000000000000003099",
              "blockHash": "0x30bb32218632ae8e311a8376ed22a04a6d83a0bc995d79b19c3e0781ddd822bb",
              "blockNumber": "0x20d56aa",
              "transactionHash": "0xc6553bf90d15fc0ae0812fe1318ba74601f6ae8bcf640141ba1a9d87d74d1c6f",
              "transactionIndex": "0x0",
              "logIndex": "0x2",
              "removed": false
            }
          ],
          "status": "0x1",
          "logsBloom": "0x00020000000000000000000000000000000000000000200000000000000000000000000000000000000000000000000000000000000000000000000000000000000000000000000000400000000000000000000000000000000082100000000000000010020000000000000000000800000000000000000001000000000000000000000000000000000000000000000000000000000000000000000400000000080800000000000000000000000000000000000000040000000000000000080000000000000000000000000000000000000000000000000080000000000020000000000001000000000000000000000000000000000000000000000000000000",
          "type": "0x0",
          "effectiveGasPrice": "0x5d21dba00"
        },
        {
          "transactionHash": "0x012ae774659d6794fb1bedcbd905bbc4e1178662334dd80f62b3123977d97449",
          "transactionIndex": "0x1",
          "blockHash": "0x0abcfbc255e78e45d5958fbde5e4132d2ea7c705b68ead017453a2cdb9552694",
          "blockNumber": "0x20d56b2",
          "from": "0x3e72022EC1841993482f94182ae186593CE512DC",
          "to": "0xD5308A4Bb2D7121A26d0bd11257245F0EFDa2bc4",
          "cumulativeGasUsed": "0x8329a",
          "gasUsed": "0x12d2c",
          "contractAddress": null,
          "logs": [
            {
              "address": "0xD5308A4Bb2D7121A26d0bd11257245F0EFDa2bc4",
              "topics": [
                "0x986fcaacc4ec3bd003cca4a358313c174dbc682df73d495e8af308dc55b027a1",
                "0x00000000000000000000000088d265063ac4b082d3ff38e28e03e162c3fdcebc",
                "0x0000000000000000000000000000000000000000000000000000000000000000"
              ],
              "data": "0x",
              "blockHash": "0x0abcfbc255e78e45d5958fbde5e4132d2ea7c705b68ead017453a2cdb9552694",
              "blockNumber": "0x20d56b2",
              "transactionHash": "0x012ae774659d6794fb1bedcbd905bbc4e1178662334dd80f62b3123977d97449",
              "transactionIndex": "0x1",
              "logIndex": "0xf",
              "removed": false
            }
          ],
          "status": "0x1",
          "logsBloom": "0x00000000000000000000000000000000000000000000200000000000000000000000000000000000000000000000000000080000000000000000000000000000000000000000000000000000000000000000000000000000000002000000000000000010020000000000000000000800000000000000000000000000000000000000000000000000000000000000000000000000000000000000000000000000000800000000000000000000000000000000000000040000000000000000000000000000020000000000000000000000000000000000000080000000000020000000000000000000200000000000000000000000000000000000000000000000",
          "type": "0x0",
          "effectiveGasPrice": "0x5d21dba00"
        },
        {
          "transactionHash": "0x87aa472cda9c2028baf060757903c40743035360071e946241099398b7bb9d96",
          "transactionIndex": "0x8",
          "blockHash": "0x1d4f4b1fb28166dad95d6cd4dec8dc859b073e6e66af4114b26f3b46a185fa6f",
          "blockNumber": "0x20d56bc",
          "from": "0x3e72022EC1841993482f94182ae186593CE512DC",
          "to": "0xD5308A4Bb2D7121A26d0bd11257245F0EFDa2bc4",
          "cumulativeGasUsed": "0x4054a5",
          "gasUsed": "0x12d2c",
          "contractAddress": null,
          "logs": [
            {
              "address": "0xD5308A4Bb2D7121A26d0bd11257245F0EFDa2bc4",
              "topics": [
                "0x986fcaacc4ec3bd003cca4a358313c174dbc682df73d495e8af308dc55b027a1",
                "0x000000000000000000000000a4d96279d9741970bb8fed137e1aa5e43f4e6f66",
                "0x0000000000000000000000000000000000000000000000000000000000000000"
              ],
              "data": "0x",
              "blockHash": "0x1d4f4b1fb28166dad95d6cd4dec8dc859b073e6e66af4114b26f3b46a185fa6f",
              "blockNumber": "0x20d56bc",
              "transactionHash": "0x87aa472cda9c2028baf060757903c40743035360071e946241099398b7bb9d96",
              "transactionIndex": "0x8",
              "logIndex": "0x5e",
              "removed": false
            }
          ],
          "status": "0x1",
          "logsBloom": "0x00000000000000000000000000000000000000000000200000000000000000000000000000000000000000000000000000000000000100000000000000000000000000000000000000000000000000000000000000008000000002000000000000000010020000000000000000000800000000000000000000000000000000000000000000000000000000000000000000000000000000000000000000000000000800000000000000000000000000000000000000040000000000000000000000000000000000000000000000000000000100000000000080000000000020000000000000000000000000000000000000000000000000000000000000000000",
          "type": "0x0",
          "effectiveGasPrice": "0x5d21dba00"
        },
        {
          "transactionHash": "0x202ee8c17b02733bbef5dbe2eba213a54c9e392f086a74f5dd62774d032f6019",
          "transactionIndex": "0x6",
          "blockHash": "0xfab4f2e669c3b2e0b03638682a2085817943c358ccf895fcb7c93912d4156e96",
          "blockNumber": "0x20d56c6",
          "from": "0x3e72022EC1841993482f94182ae186593CE512DC",
          "to": "0xD5308A4Bb2D7121A26d0bd11257245F0EFDa2bc4",
          "cumulativeGasUsed": "0x1cb09a",
          "gasUsed": "0x33542",
          "contractAddress": null,
          "logs": [],
          "status": "0x1",
          "logsBloom": "0x00000000000000000000000000000000000000000000000000000000000000000000000000000000000000000000000000000000000000000000000000000000000000000000000000000000000000000000000000000000000000000000000000000000000000000000000000000000000000000000000000000000000000000000000000000000000000000000000000000000000000000000000000000000000000000000000000000000000000000000000000000000000000000000000000000000000000000000000000000000000000000000000000000000000000000000000000000000000000000000000000000000000000000000000000000000",
          "type": "0x0",
          "effectiveGasPrice": "0x5d21dba00"
        },
        {
          "transactionHash": "0xa0d333d3d5c6a9fc3196942846a9d9120dc2b728ae581e784db9e4e34a840006",
          "transactionIndex": "0x4",
          "blockHash": "0xb9178c1b4dcf3a02d2bf5198a6de5306687372e801358706e1a0cce9b40d37cc",
          "blockNumber": "0x20d56d0",
          "from": "0x3e72022EC1841993482f94182ae186593CE512DC",
          "to": "0xD5308A4Bb2D7121A26d0bd11257245F0EFDa2bc4",
          "cumulativeGasUsed": "0x3210f1",
          "gasUsed": "0x1ce7d",
          "contractAddress": null,
          "logs": [
            {
              "address": "0xD5308A4Bb2D7121A26d0bd11257245F0EFDa2bc4",
              "topics": [
                "0x2f8788117e7eff1d82e926ec794901d17c78024a50270940304540a733656f0d",
                "0xfcb9fcbfa83b897fb2d5cf4b58962164105c1e71489a37ef3ae0db3fdce576f6",
                "0x000000000000000000000000e23212a61645e5a087299ae60f41be1e980242ac",
                "0x0000000000000000000000003e72022ec1841993482f94182ae186593ce512dc"
              ],
              "data": "0x",
              "blockHash": "0xb9178c1b4dcf3a02d2bf5198a6de5306687372e801358706e1a0cce9b40d37cc",
              "blockNumber": "0x20d56d0",
              "transactionHash": "0xa0d333d3d5c6a9fc3196942846a9d9120dc2b728ae581e784db9e4e34a840006",
              "transactionIndex": "0x4",
              "logIndex": "0x36",
              "removed": false
            }
          ],
          "status": "0x1",
          "logsBloom": "0x00000004000000000000000000000000000000000000000000000000004000000000000000000000000000000000000000000000000000000100000000800000000000000000000000000000000000000000000000000000000020040000000000000010000000000000000000000000000000000000000000000000000000000000000000000000000004000000000000000000000000000000000002000000000000000000000000000000000000000000000000040000001000000000000000000000000000000000000000000000000000000000000180000000000000000000000000001000000000000000000020000000000000000000000000000000",
          "type": "0x0",
          "effectiveGasPrice": "0x5d21dba00"
        },
        {
          "transactionHash": "0xb4fa9b8c950d8d91ce704579cd4ab0c8779c4bb1aab6c87e57dba4da5d5f5b0f",
          "transactionIndex": "0x2",
          "blockHash": "0x0266dd5e41254748c6fda1434193bed09189132f7d4ee460b6bb66f425eca316",
          "blockNumber": "0x20d56d9",
          "from": "0x3e72022EC1841993482f94182ae186593CE512DC",
          "to": "0xD5308A4Bb2D7121A26d0bd11257245F0EFDa2bc4",
          "cumulativeGasUsed": "0x219b41",
          "gasUsed": "0x18bb1",
          "contractAddress": null,
          "logs": [
            {
              "address": "0xD5308A4Bb2D7121A26d0bd11257245F0EFDa2bc4",
              "topics": [
                "0x2f8788117e7eff1d82e926ec794901d17c78024a50270940304540a733656f0d",
                "0xfcb9fcbfa83b897fb2d5cf4b58962164105c1e71489a37ef3ae0db3fdce576f6",
                "0x0000000000000000000000003e72022ec1841993482f94182ae186593ce512dc",
                "0x0000000000000000000000003e72022ec1841993482f94182ae186593ce512dc"
              ],
              "data": "0x",
              "blockHash": "0x0266dd5e41254748c6fda1434193bed09189132f7d4ee460b6bb66f425eca316",
              "blockNumber": "0x20d56d9",
              "transactionHash": "0xb4fa9b8c950d8d91ce704579cd4ab0c8779c4bb1aab6c87e57dba4da5d5f5b0f",
              "transactionIndex": "0x2",
              "logIndex": "0x22",
              "removed": false
            }
          ],
          "status": "0x1",
          "logsBloom": "0x00000004000000000000000000000000000000000000000000000000004000000000000000000000000000000000000000000000000000000100000000800000000000000000000000000000000000000000000000000000000000040000000000000010000000000000000000000000000000000000000000000000000000000000000000000000000004000000000000000000000000000000000002000000000000000000000000000000000000000000000000040000001000000000000000000000000000000000000000000000000000000000000180000000000000000000000000000000000000000000000000000000000000000000000000000000",
          "type": "0x0",
          "effectiveGasPrice": "0x5d21dba00"
        },
        {
          "transactionHash": "0xe47abf80431868fa7de2560446e6c54a11b4621bc434419c4fe13069ce3821ac",
          "transactionIndex": "0x2",
          "blockHash": "0x7e2182f4b9eeeeeef0202c299cd8a7dd7a6b3d1d507ae179ce4b95a02c1ea307",
          "blockNumber": "0x20d56e3",
          "from": "0x3e72022EC1841993482f94182ae186593CE512DC",
          "to": "0xD5308A4Bb2D7121A26d0bd11257245F0EFDa2bc4",
          "cumulativeGasUsed": "0xa637a",
          "gasUsed": "0x18bb1",
          "contractAddress": null,
          "logs": [
            {
              "address": "0xD5308A4Bb2D7121A26d0bd11257245F0EFDa2bc4",
              "topics": [
                "0x2f8788117e7eff1d82e926ec794901d17c78024a50270940304540a733656f0d",
                "0x930fce5230a9f921042304dfd119e1ad0bbc7d9c38c01b0505d47cf8b65d228c",
                "0x000000000000000000000000ff1d9082f53d0d865207120215e99c054c1b2f80",
                "0x0000000000000000000000003e72022ec1841993482f94182ae186593ce512dc"
              ],
              "data": "0x",
              "blockHash": "0x7e2182f4b9eeeeeef0202c299cd8a7dd7a6b3d1d507ae179ce4b95a02c1ea307",
              "blockNumber": "0x20d56e3",
              "transactionHash": "0xe47abf80431868fa7de2560446e6c54a11b4621bc434419c4fe13069ce3821ac",
              "transactionIndex": "0x2",
              "logIndex": "0x7",
              "removed": false
            }
          ],
          "status": "0x1",
          "logsBloom": "0x00000004000000000000000001000000000000000000000000000000004000000000000000000000000000000000000000000000000000000100010000000000000000000000000000000000000000000000000000000000000000000000000000000010000000000000000000000000000000000000000000000000000000000000000000000000000004000000000000000020000000000000000000000000000000000000000000000000000000000000008000040000001000000000000000000000000000000000000000000000000000000000000180000000000000000000000000000000000000000000000000000000000002000000000000000010",
          "type": "0x0",
          "effectiveGasPrice": "0x5d21dba00"
        },
        {
          "transactionHash": "0x6c7212fb128672165563cc617d62a7ffee7232840cf09e3289263e657ff230f5",
          "transactionIndex": "0x1",
          "blockHash": "0xa2013535f936f50a76cadb6e57a1837d1538d7ab080d418a2d22c1ab7e69f28f",
          "blockNumber": "0x20d56ed",
          "from": "0x3e72022EC1841993482f94182ae186593CE512DC",
          "to": "0xD5308A4Bb2D7121A26d0bd11257245F0EFDa2bc4",
          "cumulativeGasUsed": "0xac302",
          "gasUsed": "0x18a31",
          "contractAddress": null,
          "logs": [
            {
              "address": "0xD5308A4Bb2D7121A26d0bd11257245F0EFDa2bc4",
              "topics": [
                "0x2f8788117e7eff1d82e926ec794901d17c78024a50270940304540a733656f0d",
                "0x0000000000000000000000000000000000000000000000000000000000000000",
                "0x00000000000000000000000047ca3c9158ab77b432bfac6b83ee5c4d53d0c49f",
                "0x0000000000000000000000003e72022ec1841993482f94182ae186593ce512dc"
              ],
              "data": "0x",
              "blockHash": "0xa2013535f936f50a76cadb6e57a1837d1538d7ab080d418a2d22c1ab7e69f28f",
              "blockNumber": "0x20d56ed",
              "transactionHash": "0x6c7212fb128672165563cc617d62a7ffee7232840cf09e3289263e657ff230f5",
              "transactionIndex": "0x1",
              "logIndex": "0x8",
              "removed": false
            }
          ],
          "status": "0x1",
          "logsBloom": "0x00000004000000000000000000000000000000000000000000000000004000000000200000000000000000000000000000000000000000000100000000000000000000000000000000000000000000000000000000000000000000000000000000000010020000000000000000000900000000000000000000000000000000000000000000000000000004000000000000000000000000000000000000000000000000000000000080000000000000000000000000040000001000000000000000000000000000000000000000000000000000000000000180000000000020000000000000000000000000000000000000000000000000000000000000000000",
          "type": "0x0",
          "effectiveGasPrice": "0x5d21dba00"
        }
      ],
      "libraries": [],
      "pending": [],
      "path": "/flr-wraps-contracts/broadcast/003_deploy_Wrap.sol/19/dry-run/run-latest.json",
      "returns": {},
      "timestamp": 1682177391,
      "chain": 19,
      "multi": true,
      "commit": "1393a03"
    },
    {
      "transactions": [
        {
          "hash": "0x053b1ca1af74a22a8451bf3e3009242a7a215ef178e9e50089ec9d8d55eec05e",
          "transactionType": "CREATE",
          "contractName": "WrapMintBurn",
          "contractAddress": "0xD5308A4Bb2D7121A26d0bd11257245F0EFDa2bc4",
          "function": null,
          "arguments": null,
          "rpc": "https://erpc.xinfin.network/",
          "transaction": {
            "type": "0x00",
            "from": "0x3e72022ec1841993482f94182ae186593ce512dc",
            "gas": "0x34db5c",
            "value": "0x0",
            "data": "0x60806040523480156200001157600080fd5b5060405162003224380380620032248339810160408190526200003491620005ee565b818162000043600033620000c9565b6200005e6000805160206200320483398151915233620000c9565b620000997ffcb9fcbfa83b897fb2d5cf4b58962164105c1e71489a37ef3ae0db3fdce576f660008051602062003204833981519152620000d9565b620000b48260086200012460201b62000e891790919060201c565b620000bf81620001a4565b50505050620007d5565b620000d5828262000200565b5050565b600082815260208190526040808220600101805490849055905190918391839186917fbd79b86ffe0ab8e8776151514217cd7cacd52c909f66475c3af44e129f0b00ff9190a4505050565b805160ff1615806200013c57508051608060ff909116115b806200014d5750602081015160ff16155b80620001635750608060ff16816020015160ff16115b15620001825760405163c52a9bd360e01b815260040160405180910390fd5b8051825460209092015160ff9081166101000261ffff19909316911617179055565b60008051602062003204833981519152620001bf8162000243565b6101f461ffff83161115620001e757604051634efbf5f560e01b815260040160405180910390fd5b50600e805461ffff191661ffff92909216919091179055565b6200021782826200025260201b62000f051760201c565b60008281526001602090815260409091206200023e91839062000f89620002f2821b17901c565b505050565b6200024f813362000312565b50565b6000828152602081815260408083206001600160a01b038516845290915290205460ff16620000d5576000828152602081815260408083206001600160a01b03851684529091529020805460ff19166001179055620002ae3390565b6001600160a01b0316816001600160a01b0316837f2f8788117e7eff1d82e926ec794901d17c78024a50270940304540a733656f0d60405160405180910390a45050565b600062000309836001600160a01b038416620003b6565b90505b92915050565b6000828152602081815260408083206001600160a01b038516845290915290205460ff16620000d5576200035c816001600160a01b031660146200040860201b62000f9e1760201c565b6200037283602062000f9e62000408821b17811c565b60405160200162000385929190620006b1565b60408051601f198184030181529082905262461bcd60e51b8252620003ad916004016200072a565b60405180910390fd5b6000818152600183016020526040812054620003ff575081546001818101845560008481526020808220909301849055845484825282860190935260409020919091556200030c565b5060006200030c565b606060006200041983600262000775565b620004269060026200078f565b6001600160401b03811115620004405762000440620005c1565b6040519080825280601f01601f1916602001820160405280156200046b576020820181803683370190505b509050600360fc1b81600081518110620004895762000489620007a5565b60200101906001600160f81b031916908160001a905350600f60fb1b81600181518110620004bb57620004bb620007a5565b60200101906001600160f81b031916908160001a9053506000620004e184600262000775565b620004ee9060016200078f565b90505b600181111562000570576f181899199a1a9b1b9c1cb0b131b232b360811b85600f1660108110620005265762000526620007a5565b1a60f81b8282815181106200053f576200053f620007a5565b60200101906001600160f81b031916908160001a90535060049490941c936200056881620007bb565b9050620004f1565b508315620003095760405162461bcd60e51b815260206004820181905260248201527f537472696e67733a20686578206c656e67746820696e73756666696369656e746044820152606401620003ad565b634e487b7160e01b600052604160045260246000fd5b805160ff81168114620005e957600080fd5b919050565b60008082840360608112156200060357600080fd5b60408112156200061257600080fd5b50604080519081016001600160401b03811182821017156200064457634e487b7160e01b600052604160045260246000fd5b6040526200065284620005d7565b81526200066260208501620005d7565b6020820152604084015190925061ffff811681146200068057600080fd5b809150509250929050565b60005b83811015620006a85781810151838201526020016200068e565b50506000910152565b7f416363657373436f6e74726f6c3a206163636f756e7420000000000000000000815260008351620006eb8160178501602088016200068b565b7001034b99036b4b9b9b4b733903937b6329607d1b60179184019182015283516200071e8160288401602088016200068b565b01602801949350505050565b60208152600082518060208401526200074b8160408501602087016200068b565b601f01601f19169190910160400192915050565b634e487b7160e01b600052601160045260246000fd5b80820281158282048414176200030c576200030c6200075f565b808201808211156200030c576200030c6200075f565b634e487b7160e01b600052603260045260246000fd5b600081620007cd57620007cd6200075f565b506000190190565b612a1f80620007e56000396000f3fe608060405234801561001057600080fd5b50600436106102325760003560e01c8063842e8b8111610130578063c3e4a866116100b8578063d547741f1161007c578063d547741f14610585578063dff7330714610598578063eec9c9de146105a0578063f45346dc146105cb578063feaeb43e146105de57600080fd5b8063c3e4a86614610526578063ca15c87314610539578063ce5494bb1461054c578063d17349071461055f578063d4bf9e821461057257600080fd5b80639010d07c116100ff5780639010d07c1461046e57806391d14854146104815780639267b15314610494578063a217fddf146104a7578063ba46ae72146104af57600080fd5b8063842e8b811461041d5780638456cb591461043e578063858146361461044657806388f14da31461045b57600080fd5b80634f1811dd116101be57806366d372e81161018257806366d372e8146103c25780636d1b96b4146103d557806373445f00146103e85780637486fa4e146103fb5780637b8989391461041457600080fd5b80634f1811dd1461034e5780634f64b2be1461036e578063511e1f0c146103815780635c975abb14610394578063651107bd146103a157600080fd5b806336cdca741161020557806336cdca74146102b8578063389ed267146102f95780633f4ba83a1461032057806340a141ff1461032857806347adf6301461033b57600080fd5b806301ffc9a714610237578063248a9ca31461025f5780632f2ff15d1461029057806336568abe146102a5575b600080fd5b61024a61024536600461231c565b610607565b60405190151581526020015b60405180910390f35b61028261026d366004612346565b60009081526020819052604090206001015490565b604051908152602001610256565b6102a361029e36600461237b565b610632565b005b6102a36102b336600461237b565b61065c565b6102e16102c63660046123a7565b6005602052600090815260409020546001600160a01b031681565b6040516001600160a01b039091168152602001610256565b6102827ffcb9fcbfa83b897fb2d5cf4b58962164105c1e71489a37ef3ae0db3fdce576f681565b6102a36106df565b6102a36103363660046123a7565b610734565b6102a36103493660046123c2565b610757565b61036161035c3660046123a7565b61077c565b60405161025691906123f0565b6102e161037c366004612346565b6107f3565b6102a361038f3660046123a7565b61081d565b60025461024a9060ff1681565b6103b46103af366004612346565b6108f6565b60405161025692919061242c565b6102a36103d036600461247f565b61090e565b6102a36103e33660046124d7565b610952565b6102a36103f6366004612567565b610a3a565b600e546102e1906201000090046001600160a01b031681565b610282600d5481565b600e5461042b9061ffff1681565b60405161ffff9091168152602001610256565b6102a3610a82565b6102826000805160206129ca83398151915281565b6102a36104693660046125ac565b610abc565b6102e161047c3660046125d0565b610b14565b61024a61048f36600461237b565b610b33565b6102a36104a2366004612604565b610b5c565b610282600081565b6104f96104bd3660046123a7565b60036020528060005260406000206000915090508060000154908060010154908060020154908060030154908060040154908060050154905086565b604080519687526020870195909552938501929092526060840152608083015260a082015260c001610256565b6102a361053436600461262f565b610b8b565b610282610547366004612346565b610bd2565b6102a361055a3660046123a7565b610be9565b6102a361056d366004612346565b610c80565b6102a3610580366004612659565b610c96565b6102a361059336600461237b565b610cb9565b600954610282565b6102826105ae366004612694565b600660209081526000928352604080842090915290825290205481565b6102826105d93660046126be565b610cde565b6102e16105ec3660046123a7565b6004602052600090815260409020546001600160a01b031681565b60006001600160e01b03198216635a05180f60e01b148061062c575061062c8261113a565b92915050565b60008281526020819052604090206001015461064d8161116f565b610657838361117c565b505050565b6001600160a01b03811633146106d15760405162461bcd60e51b815260206004820152602f60248201527f416363657373436f6e74726f6c3a2063616e206f6e6c792072656e6f756e636560448201526e103937b632b9903337b91039b2b63360891b60648201526084015b60405180910390fd5b6106db828261119e565b5050565b600e546201000090046001600160a01b03161561070f57604051631fa7b44b60e11b815260040160405180910390fd5b6000805160206129ca8339815191526107278161116f565b506002805460ff19169055565b6000805160206129ca83398151915261074c8161116f565b6106db6008836111c0565b60006107628161116f565b6106db61077436849003840184612718565b600890610e89565b60408051808201909152600080825260208201526001600160a01b0382166000908152600a60205260409081902081518083019092528054829060ff1660038111156107ca576107ca6123da565b60038111156107db576107db6123da565b81529054610100900460ff1660209091015292915050565b6007818154811061080357600080fd5b6000918252602090912001546001600160a01b0316905081565b6001600160a01b03808216600090815260056020526040902054168061085657604051630ed1b8b360e31b815260040160405180910390fd5b6001600160a01b0382166000908152600a6020526040812054610100900460ff16905b6007548110156108f05760006007828154811061089857610898612781565b6000918252602080832091909101546001600160a01b031680835260068252604080842061ffff88168552909252908220805492905591506108db828683611261565b505080806108e8906127ad565b915050610879565b50505050565b606060006109056008846112c4565b91509150915091565b818181158061091e575081814014155b1561093c57604051631f03465b60e11b815260040160405180910390fd5b610948888888886113c1565b5050505050505050565b8181811580610962575081814014155b1561098057604051631f03465b60e11b815260040160405180910390fd5b60005b85811015610a3157610a1f8787838181106109a0576109a0612781565b905060800201600001358888848181106109bc576109bc612781565b90506080020160200160208101906109d491906123a7565b8989858181106109e6576109e6612781565b905060800201604001358a8a86818110610a0257610a02612781565b9050608002016060016020810190610a1a91906123a7565b6113c1565b80610a29816127ad565b915050610983565b50505050505050565b6000610a458161116f565b610a516008858561167a565b506001600160a01b03928316600090815260056020526040902080546001600160a01b031916919093161790915550565b7ffcb9fcbfa83b897fb2d5cf4b58962164105c1e71489a37ef3ae0db3fdce576f6610aac8161116f565b506002805460ff19166001179055565b6000805160206129ca833981519152610ad48161116f565b6101f461ffff83161115610afb57604051634efbf5f560e01b815260040160405180910390fd5b50600e805461ffff191661ffff92909216919091179055565b6000828152600160205260408120610b2c908361181f565b9392505050565b6000918252602082815260408084206001600160a01b0393909316845291905290205460ff1690565b6000805160206129ca833981519152610b748161116f565b61065783602084013584356040860135600061182b565b6000805160206129ca833981519152610ba38161116f565b506001600160a01b03918216600090815260056020526040902080546001600160a01b03191691909216179055565b600081815260016020526040812061062c9061191a565b60025460ff161515600003610c115760405163dcdde9dd60e01b815260040160405180910390fd5b600e546201000090046001600160a01b031615610c4157604051631fa7b44b60e11b815260040160405180910390fd5b6000610c4c8161116f565b610c5582611924565b50600e80546001600160a01b03909216620100000262010000600160b01b0319909216919091179055565b6000610c8b8161116f565b6106db6008836119e8565b6000805160206129ca833981519152610cae8161116f565b6108f0848484611a14565b600082815260208190526040902060010154610cd48161116f565b610657838361119e565b60025460009060ff161515600103610d095760405163ab35696f60e01b815260040160405180910390fd5b6001600160a01b038416600090815260036020526040902080548591859182101580610d385750818160020154115b15610d5657604051632160733960e01b815260040160405180910390fd5b600381015415610dd5576005810154610d7290620151806127c6565b421115610d8757426005820155600060048201555b8060030154828260040154610d9c91906127c6565b1115610dbb57604051635ee26fb960e11b815260040160405180910390fd5b81816004016000828254610dcf91906127c6565b90915550505b6001600160a01b038516610dfc57604051638aa3a72f60e01b815260040160405180910390fd5b600d8054945084906000610e0f836127ad565b91905055506000610e208888611ace565b90506001600160a01b038816857f3a58bc9c7c305b0dba42522c856c30706aadce643b5dc3c0a1a0c41fec127d99610e58848b6127d9565b604080519182526001600160a01b038b166020830152810185905260600160405180910390a3505050509392505050565b805160ff161580610ea057508051608060ff909116115b80610eb05750602081015160ff16155b80610ec55750608060ff16816020015160ff16115b15610ee35760405163c52a9bd360e01b815260040160405180910390fd5b8051825460209092015160ff9081166101000261ffff19909316911617179055565b610f0f8282610b33565b6106db576000828152602081815260408083206001600160a01b03851684529091529020805460ff19166001179055610f453390565b6001600160a01b0316816001600160a01b0316837f2f8788117e7eff1d82e926ec794901d17c78024a50270940304540a733656f0d60405160405180910390a45050565b6000610b2c836001600160a01b038416611aec565b60606000610fad8360026127ec565b610fb89060026127c6565b67ffffffffffffffff811115610fd057610fd06126f1565b6040519080825280601f01601f191660200182016040528015610ffa576020820181803683370190505b509050600360fc1b8160008151811061101557611015612781565b60200101906001600160f81b031916908160001a905350600f60fb1b8160018151811061104457611044612781565b60200101906001600160f81b031916908160001a90535060006110688460026127ec565b6110739060016127c6565b90505b60018111156110eb576f181899199a1a9b1b9c1cb0b131b232b360811b85600f16601081106110a7576110a7612781565b1a60f81b8282815181106110bd576110bd612781565b60200101906001600160f81b031916908160001a90535060049490941c936110e481612803565b9050611076565b508315610b2c5760405162461bcd60e51b815260206004820181905260248201527f537472696e67733a20686578206c656e67746820696e73756666696369656e7460448201526064016106c8565b60006001600160e01b03198216637965db0b60e01b148061062c57506301ffc9a760e01b6001600160e01b031983161461062c565b6111798133611b3b565b50565b6111868282610f05565b60008281526001602052604090206106579082610f89565b6111a88282611b9f565b60008281526001602052604090206106579082611c04565b6001600160a01b03811660009081526002808401602052604090912090815460ff1660038111156111f3576111f36123da565b101561121d57604051633a5a4c2160e01b81526001600160a01b03831660048201526024016106c8565b805460ff191660011781556040516001600160a01b038316907f1803740ef72fc16e647c10fe2d31cf61a1578081960c2e3fb7f5aa957e82f55090600090a2505050565b6040516001600160a01b03831660248201526044810182905261065790849063a9059cbb60e01b906064015b60408051601f198184030181529190526020810180516001600160e01b03166001600160e01b031990931692909217909152611c19565b60008181526003830160205260408120600101548354606092919082906112fd9060ff630100000082048116916201000090041661281a565b60ff1690508067ffffffffffffffff81111561131b5761131b6126f1565b604051908082528060200260200182016040528015611344578160200160208202803683370190505b5093506000925060005b8161ffff168161ffff1610156113b757600161ffff82161b8316156113a55780858561ffff168151811061138457611384612781565b61ffff90921660209283029190910190910152836113a181612833565b9450505b806113af81612833565b91505061134e565b5050509250929050565b60025460ff1615156001036113e95760405163ab35696f60e01b815260040160405180910390fd5b6001600160a01b038084166000908152600460208181526040808420549094168352600380825292849020845160c081018652815480825260018301549382019390935260028201549581019590955292830154606085015290820154608084015260059091015460a0830152849184918210158061146b5750818160200151115b1561148957604051632160733960e01b815260040160405180910390fd5b6009548710610a315760006114a088888888611ceb565b905060006114b1600833848c611d40565b905060018160028111156114c7576114c76123da565b0361151457604080518881526001600160a01b0388811660208301528a16918b917fcd73aecbef9bf19bece4b777ca57590ee572e85a62ff5602b7ab7eb73ddcb443910160405180910390a35b6115206008838b611f9b565b1561166f576001600160a01b03808916600090815260046020526040812054909116908061154f838b8b611fee565b90925090506000806115626008886112c4565b9092509050600061157761ffff831685612854565b6001600160a01b03871660009081526006602052604081209192505b8361ffff168161ffff1610156115fe5782826000878461ffff16815181106115bd576115bd612781565b602002602001015161ffff16815260200190815260200160002060008282546115e691906127c6565b909155508190506115f681612833565b915050611593565b5050505050826001600160a01b03168b6001600160a01b03168d7f775fb71ba106691d4fd81c953ace830d359f3b850e98fbc2a1ebf420af86428a858e61164591906127d9565b604080519182526001600160a01b038f166020830152810187905260600160405180910390a45050505b505050505050505050565b6000816116925783546301000000900460ff1661169e565b835462010000900460ff165b9050607f1960ff8216016116c55760405163ab2bf70360e01b815260040160405180910390fd5b6001600160a01b0383166000908152600285016020526040812090815460ff1660038111156116f6576116f66123da565b1461171f5760405163899ec36960e01b81526001600160a01b03851660048201526024016106c8565b845461173d9060ff630100000082048116916201000090041661281a565b815460ff919091166101000261ff0019909116178155821561179e57845462010000900460ff1685600261177083612876565b82546101009290920a60ff81810219909316919092169190910217905550805460ff191660021781556117e0565b84546301000000900460ff168560036117b683612876565b82546101009290920a60ff81810219909316919092169190910217905550805460ff191660031781555b604051831515906001600160a01b038616907f986fcaacc4ec3bd003cca4a358313c174dbc682df73d495e8af308dc55b027a190600090a35050505050565b6000610b2c8383612031565b6001600160a01b03851660009081526003602052604090206001015484158061185f57508161185b57801561185f565b8015155b1561187d576040516303ff3dd760e11b815260040160405180910390fd5b60006040518060c0016040528086815260200187815260200161189e600090565b6118a890896127c6565b815260208082019690965260006040808301829052426060938401526001600160a01b03909a1681526003808852908a902083518155968301516001880155988201516002870155810151978501979097555050506080840151600482015560a0909301516005909301929092555050565b600061062c825490565b60005b6007548110156106db5760006007828154811061194657611946612781565b60009182526020822001546040516370a0823160e01b81523060048201526001600160a01b03909116925082906370a0823190602401602060405180830381865afa158015611999573d6000803e3d6000fd5b505050506040513d601f19601f820116820180604052508101906119bd9190612895565b90506119d36001600160a01b0383168583611261565b505080806119e0906127ad565b915050611927565b80826001015410611a0c576040516307faab4f60e11b815260040160405180910390fd5b600190910155565b6001600160a01b038281166000908152600460205260409020541615611a4d576040516303ff3dd760e11b815260040160405180910390fd5b611a6483602083013583356040850135600161182b565b5060078054600181019091557fa66cc928b5edb82af9bd49922954155ab7b0942694bea4ce44661d9a8736c6880180546001600160a01b039384166001600160a01b0319918216811790925591909216600090815260046020526040902080549091169091179055565b6000611ae56001600160a01b03841633308561205b565b6000610b2c565b6000818152600183016020526040812054611b335750815460018181018455600084815260208082209093018490558454848252828601909352604090209190915561062c565b50600061062c565b611b458282610b33565b6106db57611b5d816001600160a01b03166014610f9e565b611b68836020610f9e565b604051602001611b799291906128d2565b60408051601f198184030181529082905262461bcd60e51b82526106c891600401612947565b611ba98282610b33565b156106db576000828152602081815260408083206001600160a01b0385168085529252808320805460ff1916905551339285917ff6391f5c32d9c69d2a47ea670b442974b53935d1edc7fd64eb21e047a839171b9190a45050565b6000610b2c836001600160a01b038416612093565b6000611c6e826040518060400160405280602081526020017f5361666545524332303a206c6f772d6c6576656c2063616c6c206661696c6564815250856001600160a01b03166121869092919063ffffffff16565b8051909150156106575780806020019051810190611c8c919061297a565b6106575760405162461bcd60e51b815260206004820152602a60248201527f5361666545524332303a204552433230206f7065726174696f6e20646964206e6044820152691bdd081cdd58d8d9595960b21b60648201526084016106c8565b6040805160208082018790526bffffffffffffffffffffffff19606087811b8216848601526054840187905285901b16607483015282518083036068018152608890920190925280519101205b949350505050565b600082815260038501602052604081206002815462010000900460ff166002811115611d6e57611d6e6123da565b03611d7d576000915050611d38565b6001600160a01b038516600090815260028701602052604080822081518083019092528054829060ff166003811115611db857611db86123da565b6003811115611dc957611dc96123da565b81529054610100900460ff166020909101529050600281516003811115611df257611df26123da565b1015611e1c57604051633a5a4c2160e01b81526001600160a01b03871660048201526024016106c8565b600084815260048801602052604090205415611e4b57604051631bf4348160e31b815260040160405180910390fd5b602081015160018381015460ff9092161b90811615611e705760009350505050611d38565b60018301805482179055600282516003811115611e8f57611e8f6123da565b03611ec45782548390600090611ea79060ff16612876565b91906101000a81548160ff021916908360ff160217905550611ef5565b82548390600190611edc90610100900460ff16612876565b91906101000a81548160ff021916908360ff1602179055505b8754835460ff918216911610801590611f2057508754835460ff610100928390048116929091041610155b15611f51575050805462ff000019166202000017905550600081815260048501602052604090208290556002611d38565b6000835462010000900460ff166002811115611f6f57611f6f6123da565b03611f8d575050805462ff0000191662010000179055506001611d38565b506000979650505050505050565b6000836001015482148015611fbf5750600082815260048501602052604090205483145b15611fe457600184018054906000611fd6836127ad565b919050555060019050610b2c565b5060009392505050565b600e54600090819061200590859061ffff16612195565b91508190506120298361201883876127d9565b6001600160a01b0388169190611261565b935093915050565b600082600001828154811061204857612048612781565b9060005260206000200154905092915050565b6040516001600160a01b03808516602483015283166044820152606481018290526108f09085906323b872dd60e01b9060840161128d565b6000818152600183016020526040812054801561217c5760006120b76001836127d9565b85549091506000906120cb906001906127d9565b90508181146121305760008660000182815481106120eb576120eb612781565b906000526020600020015490508087600001848154811061210e5761210e612781565b6000918252602080832090910192909255918252600188019052604090208390555b855486908061214157612141612997565b60019003818190600052602060002001600090559055856001016000868152602001908152602001600020600090556001935050505061062c565b600091505061062c565b6060611d3884846000856121b2565b60006127106121a861ffff8416856127ec565b610b2c9190612854565b6060824710156122135760405162461bcd60e51b815260206004820152602660248201527f416464726573733a20696e73756666696369656e742062616c616e636520666f6044820152651c8818d85b1b60d21b60648201526084016106c8565b6001600160a01b0385163b61226a5760405162461bcd60e51b815260206004820152601d60248201527f416464726573733a2063616c6c20746f206e6f6e2d636f6e747261637400000060448201526064016106c8565b600080866001600160a01b0316858760405161228691906129ad565b60006040518083038185875af1925050503d80600081146122c3576040519150601f19603f3d011682016040523d82523d6000602084013e6122c8565b606091505b50915091506122d88282866122e3565b979650505050505050565b606083156122f2575081610b2c565b8251156123025782518084602001fd5b8160405162461bcd60e51b81526004016106c89190612947565b60006020828403121561232e57600080fd5b81356001600160e01b031981168114610b2c57600080fd5b60006020828403121561235857600080fd5b5035919050565b80356001600160a01b038116811461237657600080fd5b919050565b6000806040838503121561238e57600080fd5b8235915061239e6020840161235f565b90509250929050565b6000602082840312156123b957600080fd5b610b2c8261235f565b6000604082840312156123d457600080fd5b50919050565b634e487b7160e01b600052602160045260246000fd5b815160408201906004811061241557634e487b7160e01b600052602160045260246000fd5b8083525060ff602084015116602083015292915050565b604080825283519082018190526000906020906060840190828701845b8281101561246957815161ffff1684529284019290840190600101612449565b50505061ffff9490941692019190915250919050565b60008060008060008060c0878903121561249857600080fd5b863595506124a86020880161235f565b9450604087013593506124bd6060880161235f565b92506080870135915060a087013590509295509295509295565b600080600080606085870312156124ed57600080fd5b843567ffffffffffffffff8082111561250557600080fd5b818701915087601f83011261251957600080fd5b81358181111561252857600080fd5b8860208260071b850101111561253d57600080fd5b6020928301999098509187013596604001359550909350505050565b801515811461117957600080fd5b60008060006060848603121561257c57600080fd5b6125858461235f565b9250602084013561259581612559565b91506125a36040850161235f565b90509250925092565b6000602082840312156125be57600080fd5b813561ffff81168114610b2c57600080fd5b600080604083850312156125e357600080fd5b50508035926020909101359150565b6000606082840312156123d457600080fd5b6000806080838503121561261757600080fd5b6126208361235f565b915061239e84602085016125f2565b6000806040838503121561264257600080fd5b61264b8361235f565b915061239e6020840161235f565b600080600060a0848603121561266e57600080fd5b6126778461235f565b92506126856020850161235f565b91506125a385604086016125f2565b600080604083850312156126a757600080fd5b6126b08361235f565b946020939093013593505050565b6000806000606084860312156126d357600080fd5b6126dc8461235f565b9250602084013591506125a36040850161235f565b634e487b7160e01b600052604160045260246000fd5b803560ff8116811461237657600080fd5b60006040828403121561272a57600080fd5b6040516040810181811067ffffffffffffffff8211171561275b57634e487b7160e01b600052604160045260246000fd5b60405261276783612707565b815261277560208401612707565b60208201529392505050565b634e487b7160e01b600052603260045260246000fd5b634e487b7160e01b600052601160045260246000fd5b6000600182016127bf576127bf612797565b5060010190565b8082018082111561062c5761062c612797565b8181038181111561062c5761062c612797565b808202811582820484141761062c5761062c612797565b60008161281257612812612797565b506000190190565b60ff818116838216019081111561062c5761062c612797565b600061ffff80831681810361284a5761284a612797565b6001019392505050565b60008261287157634e487b7160e01b600052601260045260246000fd5b500490565b600060ff821660ff810361288c5761288c612797565b60010192915050565b6000602082840312156128a757600080fd5b5051919050565b60005b838110156128c95781810151838201526020016128b1565b50506000910152565b7f416363657373436f6e74726f6c3a206163636f756e742000000000000000000081526000835161290a8160178501602088016128ae565b7001034b99036b4b9b9b4b733903937b6329607d1b601791840191820152835161293b8160288401602088016128ae565b01602801949350505050565b60208152600082518060208401526129668160408501602087016128ae565b601f01601f19169190910160400192915050565b60006020828403121561298c57600080fd5b8151610b2c81612559565b634e487b7160e01b600052603160045260246000fd5b600082516129bf8184602087016128ae565b919091019291505056fe930fce5230a9f921042304dfd119e1ad0bbc7d9c38c01b0505d47cf8b65d228ca2646970667358221220e2ed6b39dd95bf40f2e7dbf743f4833075af62a9565a0d20d0db50e022e661d364736f6c63430008110033930fce5230a9f921042304dfd119e1ad0bbc7d9c38c01b0505d47cf8b65d228c000000000000000000000000000000000000000000000000000000000000000100000000000000000000000000000000000000000000000000000000000000020000000000000000000000000000000000000000000000000000000000000032",
            "nonce": "0x0"
          },
          "additionalContracts": []
        },
        {
          "hash": "0xd6d9c9c02aaa709cda02b249991ab5c9fe2f34b2f55c20836e05440369489d01",
          "transactionType": "CALL",
          "contractName": "WrapMintBurn",
          "contractAddress": "0xD5308A4Bb2D7121A26d0bd11257245F0EFDa2bc4",
          "function": "addValidator(address,bool,address)",
          "arguments": [
            "0xef7F2AD219aed662AD753F9DCEfc0b4B94845A09",
            "true",
            "0x0179D1169F0C7E7C68D99dD01B07664FcCc3A801"
          ],
          "rpc": "https://erpc.xinfin.network/",
          "transaction": {
            "type": "0x00",
            "from": "0x3e72022ec1841993482f94182ae186593ce512dc",
            "to": "0xd5308a4bb2d7121a26d0bd11257245f0efda2bc4",
            "gas": "0x1a00e",
            "value": "0x0",
            "data": "0x73445f00000000000000000000000000ef7f2ad219aed662ad753f9dcefc0b4b94845a0900000000000000000000000000000000000000000000000000000000000000010000000000000000000000000179d1169f0c7e7c68d99dd01b07664fccc3a801",
            "nonce": "0x1"
          },
          "additionalContracts": []
        },
        {
          "hash": "0x7329660ac0d68a4b3757b2472460891bdfc0a049890169749ce225b0e5b2586c",
          "transactionType": "CALL",
          "contractName": "WrapMintBurn",
          "contractAddress": "0xD5308A4Bb2D7121A26d0bd11257245F0EFDa2bc4",
          "function": "addValidator(address,bool,address)",
          "arguments": [
            "0x833BE161e9f24b7BE8EF2852d3214A3E348Bc7fB",
            "true",
            "0x4eC38Cf39bA033b994db0B8c86F999fda6EB0A8D"
          ],
          "rpc": "https://erpc.xinfin.network/",
          "transaction": {
            "type": "0x00",
            "from": "0x3e72022ec1841993482f94182ae186593ce512dc",
            "to": "0xd5308a4bb2d7121a26d0bd11257245f0efda2bc4",
            "gas": "0x1a00e",
            "value": "0x0",
            "data": "0x73445f00000000000000000000000000833be161e9f24b7be8ef2852d3214a3e348bc7fb00000000000000000000000000000000000000000000000000000000000000010000000000000000000000004ec38cf39ba033b994db0b8c86f999fda6eb0a8d",
            "nonce": "0x2"
          },
          "additionalContracts": []
        },
        {
          "hash": "0xa58c1314fca042d3ab3aab2d26ae37c899a80b5c097b7852be4b4589fea62ad4",
          "transactionType": "CALL",
          "contractName": "WrapMintBurn",
          "contractAddress": "0xD5308A4Bb2D7121A26d0bd11257245F0EFDa2bc4",
          "function": "addValidator(address,bool,address)",
          "arguments": [
            "0x478Aad282c8618bAbADEe8871a099F1D2cF1E55B",
            "false",
            "0xd3eCc0B36C76A40773876569bf3C7C539b2c4c48"
          ],
          "rpc": "https://erpc.xinfin.network/",
          "transaction": {
            "type": "0x00",
            "from": "0x3e72022ec1841993482f94182ae186593ce512dc",
            "to": "0xd5308a4bb2d7121a26d0bd11257245f0efda2bc4",
            "gas": "0x19ffd",
            "value": "0x0",
            "data": "0x73445f00000000000000000000000000478aad282c8618babadee8871a099f1d2cf1e55b0000000000000000000000000000000000000000000000000000000000000000000000000000000000000000d3ecc0b36c76a40773876569bf3c7c539b2c4c48",
            "nonce": "0x3"
          },
          "additionalContracts": []
        },
        {
          "hash": "0x3be77fd53382c1f32110d79a9a42be86c6743f76e5ba2fc125302ec40e7b0edb",
          "transactionType": "CALL",
          "contractName": "WrapMintBurn",
          "contractAddress": "0xD5308A4Bb2D7121A26d0bd11257245F0EFDa2bc4",
          "function": "addValidator(address,bool,address)",
          "arguments": [
            "0x88d265063aC4B082d3FF38E28e03E162C3fDceBc",
            "false",
            "0xa5a6ee3F666CA842aeD9806FA5e8Ada075d40fD7"
          ],
          "rpc": "https://erpc.xinfin.network/",
          "transaction": {
            "type": "0x00",
            "from": "0x3e72022ec1841993482f94182ae186593ce512dc",
            "to": "0xd5308a4bb2d7121a26d0bd11257245f0efda2bc4",
            "gas": "0x19ffd",
            "value": "0x0",
            "data": "0x73445f0000000000000000000000000088d265063ac4b082d3ff38e28e03e162c3fdcebc0000000000000000000000000000000000000000000000000000000000000000000000000000000000000000a5a6ee3f666ca842aed9806fa5e8ada075d40fd7",
            "nonce": "0x4"
          },
          "additionalContracts": []
        },
        {
          "hash": "0x71d15b6d37de99057691c492762ccea0580c1ca1a15fadab89cf2f0cd14c6f44",
          "transactionType": "CALL",
          "contractName": "WrapMintBurn",
          "contractAddress": "0xD5308A4Bb2D7121A26d0bd11257245F0EFDa2bc4",
          "function": "addValidator(address,bool,address)",
          "arguments": [
            "0xa4D96279D9741970BB8FED137e1AA5E43F4e6f66",
            "false",
            "0x01986D115285267b586723fa4EE26d3BCa2e570e"
          ],
          "rpc": "https://erpc.xinfin.network/",
          "transaction": {
            "type": "0x00",
            "from": "0x3e72022ec1841993482f94182ae186593ce512dc",
            "to": "0xd5308a4bb2d7121a26d0bd11257245f0efda2bc4",
            "gas": "0x19ffd",
            "value": "0x0",
            "data": "0x73445f00000000000000000000000000a4d96279d9741970bb8fed137e1aa5e43f4e6f66000000000000000000000000000000000000000000000000000000000000000000000000000000000000000001986d115285267b586723fa4ee26d3bca2e570e",
            "nonce": "0x5"
          },
          "additionalContracts": []
        },
        {
          "hash": "0xff69bc3d5b855d6231a9926a6882b6fb73c4d2f3f12be1cd0e689752da1be36a",
          "transactionType": "CALL",
          "contractName": "WrapMintBurn",
          "contractAddress": "0xD5308A4Bb2D7121A26d0bd11257245F0EFDa2bc4",
          "function": null,
          "arguments": null,
          "rpc": "https://erpc.xinfin.network/",
          "transaction": {
            "type": "0x00",
            "from": "0x3e72022ec1841993482f94182ae186593ce512dc",
            "to": "0xd5308a4bb2d7121a26d0bd11257245f0efda2bc4",
            "gas": "0x496c2",
            "value": "0x0",
            "data": "0xd4bf9e82000000000000000000000000951857744785e80e2de051c32ee7b25f9c458c42000000000000000000000000c54de96302981f87a6f80e4607593681b44d670c00000000000000000000000000000000000000000000054b40b1f852bda000000000000000000000000000000000000000000000000000000de0b6b3a7640000000000000000000000000000000000000000000000001969368974c05b000000",
            "nonce": "0x6"
          },
          "additionalContracts": []
        },
        {
          "hash": "0x5215dc6253b5fcd348b260db343d3e399e0e74fa7df17601f219d71076b1ff12",
          "transactionType": "CALL",
          "contractName": "WrapMintBurn",
          "contractAddress": "0xD5308A4Bb2D7121A26d0bd11257245F0EFDa2bc4",
          "function": "grantRole(bytes32,address)",
          "arguments": [
            "0xfcb9fcbfa83b897fb2d5cf4b58962164105c1e71489a37ef3ae0db3fdce576f6",
            "0xE23212a61645e5a087299Ae60f41Be1e980242Ac"
          ],
          "rpc": "https://erpc.xinfin.network/",
          "transaction": {
            "type": "0x00",
            "from": "0x3e72022ec1841993482f94182ae186593ce512dc",
            "to": "0xd5308a4bb2d7121a26d0bd11257245f0efda2bc4",
            "gas": "0x27ece",
            "value": "0x0",
            "data": "0x2f2ff15dfcb9fcbfa83b897fb2d5cf4b58962164105c1e71489a37ef3ae0db3fdce576f6000000000000000000000000e23212a61645e5a087299ae60f41be1e980242ac",
            "nonce": "0x7"
          },
          "additionalContracts": []
        },
        {
          "hash": "0x8274ab030c04b418ee91f8b269f85c8c8c4e7966ede899e5c0b061829bd73b81",
          "transactionType": "CALL",
          "contractName": "WrapMintBurn",
          "contractAddress": "0xD5308A4Bb2D7121A26d0bd11257245F0EFDa2bc4",
          "function": "grantRole(bytes32,address)",
          "arguments": [
            "0xfcb9fcbfa83b897fb2d5cf4b58962164105c1e71489a37ef3ae0db3fdce576f6",
            "0x3e72022EC1841993482f94182ae186593CE512DC"
          ],
          "rpc": "https://erpc.xinfin.network/",
          "transaction": {
            "type": "0x00",
            "from": "0x3e72022ec1841993482f94182ae186593ce512dc",
            "to": "0xd5308a4bb2d7121a26d0bd11257245f0efda2bc4",
            "gas": "0x242b2",
            "value": "0x0",
            "data": "0x2f2ff15dfcb9fcbfa83b897fb2d5cf4b58962164105c1e71489a37ef3ae0db3fdce576f60000000000000000000000003e72022ec1841993482f94182ae186593ce512dc",
            "nonce": "0x8"
          },
          "additionalContracts": []
        },
        {
          "hash": "0x8a9775c1fbe898b4f2fc7c2f8d93b11ebc48195c45bb783eb8265e84f19b56f0",
          "transactionType": "CALL",
          "contractName": "WrapMintBurn",
          "contractAddress": "0xD5308A4Bb2D7121A26d0bd11257245F0EFDa2bc4",
          "function": "grantRole(bytes32,address)",
          "arguments": [
            "0x930fce5230a9f921042304dfd119e1ad0bbc7d9c38c01b0505d47cf8b65d228c",
            "0xa865dD6E86EcE2f437D93430De3DBAEB02c9C102"
          ],
          "rpc": "https://erpc.xinfin.network/",
          "transaction": {
            "type": "0x00",
            "from": "0x3e72022ec1841993482f94182ae186593ce512dc",
            "to": "0xd5308a4bb2d7121a26d0bd11257245f0efda2bc4",
            "gas": "0x242b2",
            "value": "0x0",
            "data": "0x2f2ff15d930fce5230a9f921042304dfd119e1ad0bbc7d9c38c01b0505d47cf8b65d228c000000000000000000000000a865dd6e86ece2f437d93430de3dbaeb02c9c102",
            "nonce": "0x9"
          },
          "additionalContracts": []
        },
        {
          "hash": "0xd2255832c678fa337291d3d9339d97c116de47951adb48ff659a0127923b88cd",
          "transactionType": "CALL",
          "contractName": "WrapMintBurn",
          "contractAddress": "0xD5308A4Bb2D7121A26d0bd11257245F0EFDa2bc4",
          "function": "grantRole(bytes32,address)",
          "arguments": [
            "0x0000000000000000000000000000000000000000000000000000000000000000",
            "0x47CA3C9158AB77B432bFAc6B83EE5c4d53D0C49F"
          ],
          "rpc": "https://erpc.xinfin.network/",
          "transaction": {
            "type": "0x00",
            "from": "0x3e72022ec1841993482f94182ae186593ce512dc",
            "to": "0xd5308a4bb2d7121a26d0bd11257245f0efda2bc4",
            "gas": "0x24081",
            "value": "0x0",
            "data": "0x2f2ff15d000000000000000000000000000000000000000000000000000000000000000000000000000000000000000047ca3c9158ab77b432bfac6b83ee5c4d53d0c49f",
            "nonce": "0xa"
          },
          "additionalContracts": []
        }
      ],
      "receipts": [
        {
          "transactionHash": "0x053b1ca1af74a22a8451bf3e3009242a7a215ef178e9e50089ec9d8d55eec05e",
          "transactionIndex": "0x1",
          "blockHash": "0x3fd8293719bd8aa8fb2b99065d2a8f3ffcf756e3d34d996d7af50e0575c5a324",
          "blockNumber": "0x38ce66b",
          "from": "0x3e72022EC1841993482f94182ae186593CE512DC",
          "to": null,
          "cumulativeGasUsed": "0x3246b9",
          "gasUsed": "0x3246b9",
          "contractAddress": "0xD5308A4Bb2D7121A26d0bd11257245F0EFDa2bc4",
          "logs": [
            {
              "address": "0xD5308A4Bb2D7121A26d0bd11257245F0EFDa2bc4",
              "topics": [
                "0x2f8788117e7eff1d82e926ec794901d17c78024a50270940304540a733656f0d",
                "0x0000000000000000000000000000000000000000000000000000000000000000",
                "0x0000000000000000000000003e72022ec1841993482f94182ae186593ce512dc",
                "0x0000000000000000000000003e72022ec1841993482f94182ae186593ce512dc"
              ],
              "data": "0x",
              "blockHash": "0x96d1761303440af94237303cf3e2008f17bcf411ba8198be125b363c7eb1e28e",
              "blockNumber": "0x38ce66b",
              "transactionHash": "0x053b1ca1af74a22a8451bf3e3009242a7a215ef178e9e50089ec9d8d55eec05e",
              "transactionIndex": "0x1",
              "logIndex": "0x1",
              "removed": false
            },
            {
              "address": "0xD5308A4Bb2D7121A26d0bd11257245F0EFDa2bc4",
              "topics": [
                "0x2f8788117e7eff1d82e926ec794901d17c78024a50270940304540a733656f0d",
                "0x930fce5230a9f921042304dfd119e1ad0bbc7d9c38c01b0505d47cf8b65d228c",
                "0x0000000000000000000000003e72022ec1841993482f94182ae186593ce512dc",
                "0x0000000000000000000000003e72022ec1841993482f94182ae186593ce512dc"
              ],
              "data": "0x",
              "blockHash": "0x96d1761303440af94237303cf3e2008f17bcf411ba8198be125b363c7eb1e28e",
              "blockNumber": "0x38ce66b",
              "transactionHash": "0x053b1ca1af74a22a8451bf3e3009242a7a215ef178e9e50089ec9d8d55eec05e",
              "transactionIndex": "0x1",
              "logIndex": "0x2",
              "removed": false
            },
            {
              "address": "0xD5308A4Bb2D7121A26d0bd11257245F0EFDa2bc4",
              "topics": [
                "0xbd79b86ffe0ab8e8776151514217cd7cacd52c909f66475c3af44e129f0b00ff",
                "0xfcb9fcbfa83b897fb2d5cf4b58962164105c1e71489a37ef3ae0db3fdce576f6",
                "0x0000000000000000000000000000000000000000000000000000000000000000",
                "0x930fce5230a9f921042304dfd119e1ad0bbc7d9c38c01b0505d47cf8b65d228c"
              ],
              "data": "0x",
              "blockHash": "0x96d1761303440af94237303cf3e2008f17bcf411ba8198be125b363c7eb1e28e",
              "blockNumber": "0x38ce66b",
              "transactionHash": "0x053b1ca1af74a22a8451bf3e3009242a7a215ef178e9e50089ec9d8d55eec05e",
              "transactionIndex": "0x1",
              "logIndex": "0x3",
              "removed": false
            }
          ],
          "status": "0x1",
          "logsBloom": "0x00000004000000000800000000000000080000000000000000000000004000000000000000000000000000000000000000000000000000000100000000800000000000000000000000000000000000000000000000000000000000040000000000000010020000400000000000000800000000000000000000000000000000000000000000000000000004000000000000000020000000000000000002000000000000000000000000000000000000000000008000040000001000000000000000000000000000000000000000000000000000000000000180000000000020000000000000000000000000000000000000000000000002000000000000000000"
        },
        {
          "transactionHash": "0xd6d9c9c02aaa709cda02b249991ab5c9fe2f34b2f55c20836e05440369489d01",
          "transactionIndex": "0x1",
          "blockHash": "0x9ed9ac30bc53c3adfe51b4530d3c2fc05cd9e2b3316e83ba9032c427281c7d56",
          "blockNumber": "0x38ce66e",
          "from": "0x3e72022EC1841993482f94182ae186593CE512DC",
          "to": "0xD5308A4Bb2D7121A26d0bd11257245F0EFDa2bc4",
          "cumulativeGasUsed": "0x13a74",
          "gasUsed": "0x13a74",
          "contractAddress": null,
          "logs": [
            {
              "address": "0xD5308A4Bb2D7121A26d0bd11257245F0EFDa2bc4",
              "topics": [
                "0x986fcaacc4ec3bd003cca4a358313c174dbc682df73d495e8af308dc55b027a1",
                "0x000000000000000000000000ef7f2ad219aed662ad753f9dcefc0b4b94845a09",
                "0x0000000000000000000000000000000000000000000000000000000000000001"
              ],
              "data": "0x",
              "blockHash": "0x40759ceeb4cca4018d356a0a6ac87794f8c8d151598f3aa453a3ae3a523eabf0",
              "blockNumber": "0x38ce66e",
              "transactionHash": "0xd6d9c9c02aaa709cda02b249991ab5c9fe2f34b2f55c20836e05440369489d01",
              "transactionIndex": "0x1",
              "logIndex": "0x1",
              "removed": false
            }
          ],
          "status": "0x1",
          "logsBloom": "0x00000000000000000000000000000000000000000000200000000000000000000000000000000000000000000000000000200000000000000000000000840000000000000000000000000000000000000000000000040000000002000000000000000010000000000000000000000000000000000000000000000000000000000000000000000000000000000000000000000000000000000000000000000000000800000000000000000000000000000000000000040000000000000000000000000080000000000000000000000000000000000000000080000000000040000000000000000000000000000000000000000000000000000000000000000000"
        },
        {
          "transactionHash": "0x7329660ac0d68a4b3757b2472460891bdfc0a049890169749ce225b0e5b2586c",
          "transactionIndex": "0x1",
          "blockHash": "0x26926625248f6b977565a39ef1fc0cc45b754dc8052c17b0705bc8e8b19576ae",
          "blockNumber": "0x38ce671",
          "from": "0x3e72022EC1841993482f94182ae186593CE512DC",
          "to": "0xD5308A4Bb2D7121A26d0bd11257245F0EFDa2bc4",
          "cumulativeGasUsed": "0x13a74",
          "gasUsed": "0x13a74",
          "contractAddress": null,
          "logs": [
            {
              "address": "0xD5308A4Bb2D7121A26d0bd11257245F0EFDa2bc4",
              "topics": [
                "0x986fcaacc4ec3bd003cca4a358313c174dbc682df73d495e8af308dc55b027a1",
                "0x000000000000000000000000833be161e9f24b7be8ef2852d3214a3e348bc7fb",
                "0x0000000000000000000000000000000000000000000000000000000000000001"
              ],
              "data": "0x",
              "blockHash": "0x8e0f7cd34fa198f3a87ba0d1229ec022dde3f8a011cdf49a2b6e22a12f3991a8",
              "blockNumber": "0x38ce671",
              "transactionHash": "0x7329660ac0d68a4b3757b2472460891bdfc0a049890169749ce225b0e5b2586c",
              "transactionIndex": "0x1",
              "logIndex": "0x1",
              "removed": false
            }
          ],
          "status": "0x1",
          "logsBloom": "0x00000000000000000000000000000000000000000000200000000000000000000000000000000000000000000000000000000000000000000000000000040000000000000000000040000000000000000000000000040000000002800000000000000010000000000000000000000000000000000000000000000000000000000000000000000000000000000000000000000000000000000000000000000000000800000000000000000000000000000000008000040000000000000000000000000000000000000000000000000000000000000000000080000000000040000000000000000000000000000000000000000000000000000000000000000000"
        },
        {
          "transactionHash": "0xa58c1314fca042d3ab3aab2d26ae37c899a80b5c097b7852be4b4589fea62ad4",
          "transactionIndex": "0x1",
          "blockHash": "0x5e1158b3bd4ab6d6230cdb009bdcc48d291ddb56fb419f0ba322d14aa71a1df1",
          "blockNumber": "0x38ce675",
          "from": "0x3e72022EC1841993482f94182ae186593CE512DC",
          "to": "0xD5308A4Bb2D7121A26d0bd11257245F0EFDa2bc4",
          "cumulativeGasUsed": "0x13a34",
          "gasUsed": "0x13a34",
          "contractAddress": null,
          "logs": [
            {
              "address": "0xD5308A4Bb2D7121A26d0bd11257245F0EFDa2bc4",
              "topics": [
                "0x986fcaacc4ec3bd003cca4a358313c174dbc682df73d495e8af308dc55b027a1",
                "0x000000000000000000000000478aad282c8618babadee8871a099f1d2cf1e55b",
                "0x0000000000000000000000000000000000000000000000000000000000000000"
              ],
              "data": "0x",
              "blockHash": "0x993923544a4f37f98fbc9abdf15bf3a07d77be6e6f068598cd39258df0184f0f",
              "blockNumber": "0x38ce675",
              "transactionHash": "0xa58c1314fca042d3ab3aab2d26ae37c899a80b5c097b7852be4b4589fea62ad4",
              "transactionIndex": "0x1",
              "logIndex": "0x1",
              "removed": false
            }
          ],
          "status": "0x1",
          "logsBloom": "0x00000000000000000000000000000000000000000000200000000000000000000000000000000000000000000000000000000000000000000000000000000000000000000000000000000000000000000000000000000000000002100000000000000010020000000000000000000800000000000000000000000000000000000000000000000000000000000000000000000000000000000000000000000000000800000000000000000000000000000000000000040000000000000000080000000000000000000000000000000000000000000000000080000000000020000000000001000000000000000000000000000000000000000000000000000000"
        },
        {
          "transactionHash": "0x3be77fd53382c1f32110d79a9a42be86c6743f76e5ba2fc125302ec40e7b0edb",
          "transactionIndex": "0x1",
          "blockHash": "0x918f6153fb6641c0030bc286000fe6e2cd76bbe15b658246a6ac9c03df629c5b",
          "blockNumber": "0x38ce678",
          "from": "0x3e72022EC1841993482f94182ae186593CE512DC",
          "to": "0xD5308A4Bb2D7121A26d0bd11257245F0EFDa2bc4",
          "cumulativeGasUsed": "0x13a34",
          "gasUsed": "0x13a34",
          "contractAddress": null,
          "logs": [
            {
              "address": "0xD5308A4Bb2D7121A26d0bd11257245F0EFDa2bc4",
              "topics": [
                "0x986fcaacc4ec3bd003cca4a358313c174dbc682df73d495e8af308dc55b027a1",
                "0x00000000000000000000000088d265063ac4b082d3ff38e28e03e162c3fdcebc",
                "0x0000000000000000000000000000000000000000000000000000000000000000"
              ],
              "data": "0x",
              "blockHash": "0xdb16d1a0b86afac5df32360c12c7116fc8d054371b3314ca1bfe949b7f6ab29c",
              "blockNumber": "0x38ce678",
              "transactionHash": "0x3be77fd53382c1f32110d79a9a42be86c6743f76e5ba2fc125302ec40e7b0edb",
              "transactionIndex": "0x1",
              "logIndex": "0x1",
              "removed": false
            }
          ],
          "status": "0x1",
          "logsBloom": "0x00000000000000000000000000000000000000000000200000000000000000000000000000000000000000000000000000080000000000000000000000000000000000000000000000000000000000000000000000000000000002000000000000000010020000000000000000000800000000000000000000000000000000000000000000000000000000000000000000000000000000000000000000000000000800000000000000000000000000000000000000040000000000000000000000000000020000000000000000000000000000000000000080000000000020000000000000000000200000000000000000000000000000000000000000000000"
        },
        {
          "transactionHash": "0x71d15b6d37de99057691c492762ccea0580c1ca1a15fadab89cf2f0cd14c6f44",
          "transactionIndex": "0x1",
          "blockHash": "0xe87e25f8e29025721266882099e9be9816b9dbd86e8fd93d9300d8b4202f5f82",
          "blockNumber": "0x38ce67c",
          "from": "0x3e72022EC1841993482f94182ae186593CE512DC",
          "to": "0xD5308A4Bb2D7121A26d0bd11257245F0EFDa2bc4",
          "cumulativeGasUsed": "0x13a34",
          "gasUsed": "0x13a34",
          "contractAddress": null,
          "logs": [
            {
              "address": "0xD5308A4Bb2D7121A26d0bd11257245F0EFDa2bc4",
              "topics": [
                "0x986fcaacc4ec3bd003cca4a358313c174dbc682df73d495e8af308dc55b027a1",
                "0x000000000000000000000000a4d96279d9741970bb8fed137e1aa5e43f4e6f66",
                "0x0000000000000000000000000000000000000000000000000000000000000000"
              ],
              "data": "0x",
              "blockHash": "0x905c8bf15bf7e90ff3f6f1e9509f2c98fc42eea46d61b22e884b93e57212adde",
              "blockNumber": "0x38ce67c",
              "transactionHash": "0x71d15b6d37de99057691c492762ccea0580c1ca1a15fadab89cf2f0cd14c6f44",
              "transactionIndex": "0x1",
              "logIndex": "0x1",
              "removed": false
            }
          ],
          "status": "0x1",
          "logsBloom": "0x00000000000000000000000000000000000000000000200000000000000000000000000000000000000000000000000000000000000100000000000000000000000000000000000000000000000000000000000000008000000002000000000000000010020000000000000000000800000000000000000000000000000000000000000000000000000000000000000000000000000000000000000000000000000800000000000000000000000000000000000000040000000000000000000000000000000000000000000000000000000100000000000080000000000020000000000000000000000000000000000000000000000000000000000000000000"
        },
        {
          "transactionHash": "0xff69bc3d5b855d6231a9926a6882b6fb73c4d2f3f12be1cd0e689752da1be36a",
          "transactionIndex": "0x1",
          "blockHash": "0x36ca22b9ad11387e362f9133f91f838e8ca3a717939a59fc224829ea000f7f9c",
          "blockNumber": "0x38ce67f",
          "from": "0x3e72022EC1841993482f94182ae186593CE512DC",
          "to": "0xD5308A4Bb2D7121A26d0bd11257245F0EFDa2bc4",
          "cumulativeGasUsed": "0x2f385",
          "gasUsed": "0x2f385",
          "contractAddress": null,
          "logs": [],
          "status": "0x1",
          "logsBloom": "0x00000000000000000000000000000000000000000000000000000000000000000000000000000000000000000000000000000000000000000000000000000000000000000000000000000000000000000000000000000000000000000000000000000000000000000000000000000000000000000000000000000000000000000000000000000000000000000000000000000000000000000000000000000000000000000000000000000000000000000000000000000000000000000000000000000000000000000000000000000000000000000000000000000000000000000000000000000000000000000000000000000000000000000000000000000000"
        },
        {
          "transactionHash": "0x5215dc6253b5fcd348b260db343d3e399e0e74fa7df17601f219d71076b1ff12",
          "transactionIndex": "0x1",
          "blockHash": "0x8a5103c517b7ea643657609cfc8860e6e03a7c18527080fc0a77729fd5188ed5",
          "blockNumber": "0x38ce683",
          "from": "0x3e72022EC1841993482f94182ae186593CE512DC",
          "to": "0xD5308A4Bb2D7121A26d0bd11257245F0EFDa2bc4",
          "cumulativeGasUsed": "0x1bdbd",
          "gasUsed": "0x1bdbd",
          "contractAddress": null,
          "logs": [
            {
              "address": "0xD5308A4Bb2D7121A26d0bd11257245F0EFDa2bc4",
              "topics": [
                "0x2f8788117e7eff1d82e926ec794901d17c78024a50270940304540a733656f0d",
                "0xfcb9fcbfa83b897fb2d5cf4b58962164105c1e71489a37ef3ae0db3fdce576f6",
                "0x000000000000000000000000e23212a61645e5a087299ae60f41be1e980242ac",
                "0x0000000000000000000000003e72022ec1841993482f94182ae186593ce512dc"
              ],
              "data": "0x",
              "blockHash": "0xbd0c76a9b80fe1d4cbc3caabc4424c5c426540efd5563b56820b96f8d6e2338e",
              "blockNumber": "0x38ce683",
              "transactionHash": "0x5215dc6253b5fcd348b260db343d3e399e0e74fa7df17601f219d71076b1ff12",
              "transactionIndex": "0x1",
              "logIndex": "0x1",
              "removed": false
            }
          ],
          "status": "0x1",
          "logsBloom": "0x00000004000000000000000000000000000000000000000000000000004000000000000000000000000000000000000000000000000000000100000000800000000000000000000000000000000000000000000000000000000020040000000000000010000000000000000000000000000000000000000000000000000000000000000000000000000004000000000000000000000000000000000002000000000000000000000000000000000000000000000000040000001000000000000000000000000000000000000000000000000000000000000180000000000000000000000000001000000000000000000020000000000000000000000000000000"
        },
        {
          "transactionHash": "0x8274ab030c04b418ee91f8b269f85c8c8c4e7966ede899e5c0b061829bd73b81",
          "transactionIndex": "0x1",
          "blockHash": "0xde3fd44ad4c40bdbc7376efaea767b2817713c9121fa94f77329826fbaac265f",
          "blockNumber": "0x38ce686",
          "from": "0x3e72022EC1841993482f94182ae186593CE512DC",
          "to": "0xD5308A4Bb2D7121A26d0bd11257245F0EFDa2bc4",
          "cumulativeGasUsed": "0x18325",
          "gasUsed": "0x18325",
          "contractAddress": null,
          "logs": [
            {
              "address": "0xD5308A4Bb2D7121A26d0bd11257245F0EFDa2bc4",
              "topics": [
                "0x2f8788117e7eff1d82e926ec794901d17c78024a50270940304540a733656f0d",
                "0xfcb9fcbfa83b897fb2d5cf4b58962164105c1e71489a37ef3ae0db3fdce576f6",
                "0x0000000000000000000000003e72022ec1841993482f94182ae186593ce512dc",
                "0x0000000000000000000000003e72022ec1841993482f94182ae186593ce512dc"
              ],
              "data": "0x",
              "blockHash": "0xbb19cad681c39c13c09289fb83fbfc5c29ea4d481bf497dcca6919a72db8a9e2",
              "blockNumber": "0x38ce686",
              "transactionHash": "0x8274ab030c04b418ee91f8b269f85c8c8c4e7966ede899e5c0b061829bd73b81",
              "transactionIndex": "0x1",
              "logIndex": "0x1",
              "removed": false
            }
          ],
          "status": "0x1",
          "logsBloom": "0x00000004000000000000000000000000000000000000000000000000004000000000000000000000000000000000000000000000000000000100000000800000000000000000000000000000000000000000000000000000000000040000000000000010000000000000000000000000000000000000000000000000000000000000000000000000000004000000000000000000000000000000000002000000000000000000000000000000000000000000000000040000001000000000000000000000000000000000000000000000000000000000000180000000000000000000000000000000000000000000000000000000000000000000000000000000"
        },
        {
          "transactionHash": "0x8a9775c1fbe898b4f2fc7c2f8d93b11ebc48195c45bb783eb8265e84f19b56f0",
          "transactionIndex": "0x1",
          "blockHash": "0x857b8c78405a44c39db676375ca66b6e4e04163de937b0f1c5796cce8761dcff",
          "blockNumber": "0x38ce68a",
          "from": "0x3e72022EC1841993482f94182ae186593CE512DC",
          "to": "0xD5308A4Bb2D7121A26d0bd11257245F0EFDa2bc4",
          "cumulativeGasUsed": "0x18325",
          "gasUsed": "0x18325",
          "contractAddress": null,
          "logs": [
            {
              "address": "0xD5308A4Bb2D7121A26d0bd11257245F0EFDa2bc4",
              "topics": [
                "0x2f8788117e7eff1d82e926ec794901d17c78024a50270940304540a733656f0d",
                "0x930fce5230a9f921042304dfd119e1ad0bbc7d9c38c01b0505d47cf8b65d228c",
                "0x000000000000000000000000a865dd6e86ece2f437d93430de3dbaeb02c9c102",
                "0x0000000000000000000000003e72022ec1841993482f94182ae186593ce512dc"
              ],
              "data": "0x",
              "blockHash": "0xc5860988197eec19e73bdfc2edeeea9cf38a7e7f234445b7a93d96e1894a5900",
              "blockNumber": "0x38ce68a",
              "transactionHash": "0x8a9775c1fbe898b4f2fc7c2f8d93b11ebc48195c45bb783eb8265e84f19b56f0",
              "transactionIndex": "0x1",
              "logIndex": "0x1",
              "removed": false
            }
          ],
          "status": "0x1",
          "logsBloom": "0x00000004000000000000000000000000000000000000000000000000004000000000000000000000000000000000000000000000000000000100000000000000000000000000000000000000000000000000000000000000000000000000000000000010000000000000000000000000000000000000000000000000000000000000100000000000000004000000000000000020000000000000000000000000000000000000000000000000000000000000008000040000001000000000000000000000000000000000000400000000000000000000000180000000000000000000000000000200000000000000000000000000000002000000000000000000"
        },
        {
          "transactionHash": "0xd2255832c678fa337291d3d9339d97c116de47951adb48ff659a0127923b88cd",
          "transactionIndex": "0x1",
          "blockHash": "0x4c677fa0d442e89eaa3b86a7c462ec1c6bb287f368eed4f1ea589f63c19ea9e8",
          "blockNumber": "0x38ce68d",
          "from": "0x3e72022EC1841993482f94182ae186593CE512DC",
          "to": "0xD5308A4Bb2D7121A26d0bd11257245F0EFDa2bc4",
          "cumulativeGasUsed": "0x17b25",
          "gasUsed": "0x17b25",
          "contractAddress": null,
          "logs": [
            {
              "address": "0xD5308A4Bb2D7121A26d0bd11257245F0EFDa2bc4",
              "topics": [
                "0x2f8788117e7eff1d82e926ec794901d17c78024a50270940304540a733656f0d",
                "0x0000000000000000000000000000000000000000000000000000000000000000",
                "0x00000000000000000000000047ca3c9158ab77b432bfac6b83ee5c4d53d0c49f",
                "0x0000000000000000000000003e72022ec1841993482f94182ae186593ce512dc"
              ],
              "data": "0x",
              "blockHash": "0x82bb1a668d97669938df9d3435992a9b53746c5eaf7ce0d1e7d14d5486738033",
              "blockNumber": "0x38ce68d",
              "transactionHash": "0xd2255832c678fa337291d3d9339d97c116de47951adb48ff659a0127923b88cd",
              "transactionIndex": "0x1",
              "logIndex": "0x1",
              "removed": false
            }
          ],
          "status": "0x1",
          "logsBloom": "0x00000004000000000000000000000000000000000000000000000000004000000000200000000000000000000000000000000000000000000100000000000000000000000000000000000000000000000000000000000000000000000000000000000010020000000000000000000900000000000000000000000000000000000000000000000000000004000000000000000000000000000000000000000000000000000000000080000000000000000000000000040000001000000000000000000000000000000000000000000000000000000000000180000000000020000000000000000000000000000000000000000000000000000000000000000000"
        }
      ],
      "libraries": [],
      "pending": [],
      "path": "/flr-wraps-contracts/broadcast/003_deploy_Wrap.sol/50/dry-run/run-latest.json",
      "returns": {},
      "timestamp": 1682177391,
      "chain": 50,
      "multi": true,
      "commit": "1393a03"
    }
  ],
  "path": "/flr-wraps-contracts/broadcast/multi/003_deploy_Wrap.sol-latest/run.json",
  "timestamp": 1682177502
}